{"abi":[{"type":"constructor","inputs":[{"name":"_owner","type":"address","internalType":"address"},{"name":"_stakingToken","type":"address","internalType":"address"},{"name":"_rewardToken","type":"address","internalType":"address"}],"stateMutability":"nonpayable"},{"type":"function","name":"DURATION","inputs":[],"outputs":[{"name":"","type":"uint256","internalType":"uint256"}],"stateMutability":"view"},{"type":"function","name":"balanceOf","inputs":[{"name":"account","type":"address","internalType":"address"}],"outputs":[{"name":"","type":"uint256","internalType":"uint256"}],"stateMutability":"view"},{"type":"function","name":"deployer","inputs":[],"outputs":[{"name":"","type":"address","internalType":"address"}],"stateMutability":"view"},{"type":"function","name":"earned","inputs":[{"name":"account","type":"address","internalType":"address"}],"outputs":[{"name":"","type":"uint256","internalType":"uint256"}],"stateMutability":"view"},{"type":"function","name":"exit","inputs":[],"outputs":[],"stateMutability":"nonpayable"},{"type":"function","name":"getReward","inputs":[],"outputs":[],"stateMutability":"nonpayable"},{"type":"function","name":"lastTimeRewardApplicable","inputs":[],"outputs":[{"name":"","type":"uint256","internalType":"uint256"}],"stateMutability":"view"},{"type":"function","name":"lastUpdateTime","inputs":[],"outputs":[{"name":"","type":"uint256","internalType":"uint256"}],"stateMutability":"view"},{"type":"function","name":"notifyRewardAmount","inputs":[{"name":"_amount","type":"uint256","internalType":"uint256"}],"outputs":[],"stateMutability":"nonpayable"},{"type":"function","name":"owner","inputs":[],"outputs":[{"name":"","type":"address","internalType":"address"}],"stateMutability":"view"},{"type":"function","name":"perezoso","inputs":[],"outputs":[{"name":"","type":"address","internalType":"contract IERC20"}],"stateMutability":"view"},{"type":"function","name":"periodFinish","inputs":[],"outputs":[{"name":"","type":"uint256","internalType":"uint256"}],"stateMutability":"view"},{"type":"function","name":"recoverERC20","inputs":[{"name":"tokenAddress","type":"address","internalType":"address"},{"name":"tokenAmount","type":"uint256","internalType":"uint256"}],"outputs":[],"stateMutability":"nonpayable"},{"type":"function","name":"recoverPerezosoToken","inputs":[],"outputs":[],"stateMutability":"nonpayable"},{"type":"function","name":"renounceOwnership","inputs":[],"outputs":[],"stateMutability":"nonpayable"},{"type":"function","name":"rewardDistribution","inputs":[],"outputs":[{"name":"","type":"address","internalType":"address"}],"stateMutability":"view"},{"type":"function","name":"rewardPerToken","inputs":[],"outputs":[{"name":"","type":"uint256","internalType":"uint256"}],"stateMutability":"view"},{"type":"function","name":"rewardPerTokenStored","inputs":[],"outputs":[{"name":"","type":"uint256","internalType":"uint256"}],"stateMutability":"view"},{"type":"function","name":"rewardRate","inputs":[],"outputs":[{"name":"","type":"uint256","internalType":"uint256"}],"stateMutability":"view"},{"type":"function","name":"rewards","inputs":[{"name":"","type":"address","internalType":"address"}],"outputs":[{"name":"","type":"uint256","internalType":"uint256"}],"stateMutability":"view"},{"type":"function","name":"setRewardDistribution","inputs":[{"name":"_rewardDistribution","type":"address","internalType":"address"}],"outputs":[],"stateMutability":"nonpayable"},{"type":"function","name":"stake","inputs":[{"name":"amount","type":"uint256","internalType":"uint256"}],"outputs":[],"stateMutability":"nonpayable"},{"type":"function","name":"stakingToken","inputs":[],"outputs":[{"name":"","type":"address","internalType":"contract IERC20"}],"stateMutability":"view"},{"type":"function","name":"totalSupply","inputs":[],"outputs":[{"name":"","type":"uint256","internalType":"uint256"}],"stateMutability":"view"},{"type":"function","name":"transferOwnership","inputs":[{"name":"newOwner","type":"address","internalType":"address"}],"outputs":[],"stateMutability":"nonpayable"},{"type":"function","name":"userRewardPerTokenPaid","inputs":[{"name":"","type":"address","internalType":"address"}],"outputs":[{"name":"","type":"uint256","internalType":"uint256"}],"stateMutability":"view"},{"type":"function","name":"withdraw","inputs":[{"name":"amount","type":"uint256","internalType":"uint256"}],"outputs":[],"stateMutability":"nonpayable"},{"type":"event","name":"OwnershipTransferred","inputs":[{"name":"previousOwner","type":"address","indexed":true,"internalType":"address"},{"name":"newOwner","type":"address","indexed":true,"internalType":"address"}],"anonymous":false},{"type":"event","name":"RewardAdded","inputs":[{"name":"reward","type":"uint256","indexed":false,"internalType":"uint256"}],"anonymous":false},{"type":"event","name":"RewardPaid","inputs":[{"name":"user","type":"address","indexed":true,"internalType":"address"},{"name":"reward","type":"uint256","indexed":false,"internalType":"uint256"}],"anonymous":false},{"type":"event","name":"Staked","inputs":[{"name":"user","type":"address","indexed":true,"internalType":"address"},{"name":"amount","type":"uint256","indexed":false,"internalType":"uint256"}],"anonymous":false},{"type":"event","name":"TokensRecovered","inputs":[{"name":"token","type":"address","indexed":false,"internalType":"address"},{"name":"amount","type":"uint256","indexed":false,"internalType":"uint256"}],"anonymous":false},{"type":"event","name":"Withdrawn","inputs":[{"name":"user","type":"address","indexed":true,"internalType":"address"},{"name":"amount","type":"uint256","indexed":false,"internalType":"uint256"}],"anonymous":false},{"type":"error","name":"AddressEmptyCode","inputs":[{"name":"target","type":"address","internalType":"address"}]},{"type":"error","name":"AddressInsufficientBalance","inputs":[{"name":"account","type":"address","internalType":"address"}]},{"type":"error","name":"FailedInnerCall","inputs":[]},{"type":"error","name":"OwnableInvalidOwner","inputs":[{"name":"owner","type":"address","internalType":"address"}]},{"type":"error","name":"OwnableUnauthorizedAccount","inputs":[{"name":"account","type":"address","internalType":"address"}]},{"type":"error","name":"ReentrancyGuardReentrantCall","inputs":[]},{"type":"error","name":"SafeERC20FailedOperation","inputs":[{"name":"token","type":"address","internalType":"address"}]}],"bytecode":{"object":"0x6080604052600060085560006009553480156200001b57600080fd5b50604051620012e2380380620012e28339810160408190526200003e91620001be565b600080546001600160a01b0319166001600160a01b0384811691909117909155839081166200008857604051631e4fbdf760e01b8152600060048201526024015b60405180910390fd5b6200009381620000da565b506001600555600680546001600160a01b0319166001600160a01b038316179055620000bf836200012c565b5050600780546001600160a01b031916331790555062000208565b600380546001600160a01b038381166001600160a01b0319831681179093556040519116919082907f8be0079c531659141344cd1fd0a4f28419497f9722a3daafe3b4186f6b6457e090600090a35050565b6200013662000170565b6001600160a01b0381166200016257604051631e4fbdf760e01b8152600060048201526024016200007f565b6200016d81620000da565b50565b6003546001600160a01b031633146200019f5760405163118cdaa760e01b81523360048201526024016200007f565b565b80516001600160a01b0381168114620001b957600080fd5b919050565b600080600060608486031215620001d457600080fd5b620001df84620001a1565b9250620001ef60208501620001a1565b9150620001ff60408501620001a1565b90509250925092565b6110ca80620002186000396000f3fe608060405234801561001057600080fd5b50600436106101a85760003560e01c80637b0a47ee116100f9578063cd3daf9d11610097578063e9fad8ee11610071578063e9fad8ee14610354578063ebe2b12b1461035c578063edd0e0cb14610365578063f2fde38b1461037857600080fd5b8063cd3daf9d14610330578063d5f3948814610338578063df136d651461034b57600080fd5b80638b876347116100d35780638b876347146102e35780638da5cb5b14610303578063a694fc3a14610314578063c8f33c911461032757600080fd5b80637b0a47ee146102bf57806380faa57d146102c85780638980f11f146102d057600080fd5b80632e1a7d4d116101665780635c319d0f116101405780635c319d0f1461027357806370a082311461027b578063715018a6146102a457806372f702f3146102ac57600080fd5b80632e1a7d4d146102455780633c6b16ab146102585780633d18b9121461026b57600080fd5b80628cc262146101ad5780630700037d146101d35780630d68b761146101f3578063101114cf1461020857806318160ddd146102335780631be052891461023b575b600080fd5b6101c06101bb366004610efe565b61038b565b6040519081526020015b60405180910390f35b6101c06101e1366004610efe565b600d6020526000908152604090205481565b610206610201366004610efe565b61040a565b005b60045461021b906001600160a01b031681565b6040516001600160a01b0390911681526020016101ca565b6001546101c0565b6101c062093a8081565b610206610253366004610f19565b610434565b610206610266366004610f19565b61052d565b6102066106a5565b610206610775565b6101c0610289366004610efe565b6001600160a01b031660009081526002602052604090205490565b610206610894565b60005461021b906001600160a01b031681565b6101c060095481565b6101c06108a8565b6102066102de366004610f32565b6108bb565b6101c06102f1366004610efe565b600c6020526000908152604090205481565b6003546001600160a01b031661021b565b610206610322366004610f19565b61095f565b6101c0600a5481565b6101c0610a3e565b60075461021b906001600160a01b031681565b6101c0600b5481565b610206610a8f565b6101c060085481565b60065461021b906001600160a01b031681565b610206610386366004610efe565b610ab0565b6001600160a01b0381166000908152600d6020908152604080832054600c90925282205461040491906103fe90670de0b6b3a7640000906103f8906103d8906103d2610a3e565b90610aee565b6001600160a01b0388166000908152600260205260409020545b90610b11565b90610b47565b90610b53565b92915050565b610412610b71565b600480546001600160a01b0319166001600160a01b0392909216919091179055565b3361043d610a3e565b600b556104486108a8565b600a556001600160a01b0381161561048f576104638161038b565b6001600160a01b0382166000908152600d6020908152604080832093909355600b54600c909152919020555b610497610b9e565b600082116104e05760405162461bcd60e51b8152602060048201526011602482015270043616e6e6f74207769746864726177203607c1b60448201526064015b60405180910390fd5b6104e982610bc8565b60405182815233907f7084f5476618d8e60b11ef0d7d3f06914655adb8793e28ff7f018d4c76d505d5906020015b60405180910390a26105296001600555565b5050565b6000610537610a3e565b600b556105426108a8565b600a556001600160a01b038116156105895761055d8161038b565b6001600160a01b0382166000908152600d6020908152604080832093909355600b54600c909152919020555b60085442106105a75761059f8262093a80610b47565b60095561063f565b6008546000906105b79042610aee565b905060006105d060095483610b1190919063ffffffff16565b905060006105e562093a806103f88785610b53565b90506009548110156106395760405162461bcd60e51b815260206004820152601760248201527f4e657720726577617264207261746520746f6f206c6f7700000000000000000060448201526064016104d7565b60095550505b42600a8190556106529062093a80610b53565b60085560065461066d906001600160a01b0316333085610c1a565b6040518281527fde88a922e0d3b88b24e9623efeb464919c6bf9f66857a65e2bfcf2ce87a9433d906020015b60405180910390a15050565b336106ae610a3e565b600b556106b96108a8565b600a556001600160a01b03811615610700576106d48161038b565b6001600160a01b0382166000908152600d6020908152604080832093909355600b54600c909152919020555b600061070b3361038b565b9050801561052957336000818152600d602052604081205560065461073c916001600160a01b039091169083610c87565b60405181815233907fe2403640ba68fed3a2f88b7557551d1993f84b99bb10ff833f0cf8db0c5e04869060200160405180910390a25050565b6003546001600160a01b031633148061079857506007546001600160a01b031633145b6107b45760405162461bcd60e51b81526004016104d790610f5c565b6006546040516370a0823160e01b81523060048201526000916001600160a01b0316906370a0823190602401602060405180830381865afa1580156107fd573d6000803e3d6000fd5b505050506040513d601f19601f820116820180604052508101906108219190610f9f565b905061084b6108386003546001600160a01b031690565b6006546001600160a01b03169083610c87565b600654604080516001600160a01b039092168252602082018390527f46d2e6e71fc567877b817ff3d940571f989d4ee4d40f2b70806d36e738feef6f910160405180910390a150565b61089c610b71565b6108a66000610cbd565b565b60006108b642600854610d0f565b905090565b6003546001600160a01b03163314806108de57506007546001600160a01b031633145b6108fa5760405162461bcd60e51b81526004016104d790610f5c565b61092061090f6003546001600160a01b031690565b6001600160a01b0384169083610c87565b604080516001600160a01b0384168152602081018390527f46d2e6e71fc567877b817ff3d940571f989d4ee4d40f2b70806d36e738feef6f9101610699565b33610968610a3e565b600b556109736108a8565b600a556001600160a01b038116156109ba5761098e8161038b565b6001600160a01b0382166000908152600d6020908152604080832093909355600b54600c909152919020555b6109c2610b9e565b60008211610a035760405162461bcd60e51b815260206004820152600e60248201526d043616e6e6f74207374616b6520360941b60448201526064016104d7565b610a0c82610d25565b60405182815233907f9e71bc8eea02a63969f509818f2dafb9254532904319f9dbda79b67bd34a5f3d90602001610517565b6000610a4960015490565b600003610a575750600b5490565b6108b6610a86610a6660015490565b6103f8670de0b6b3a76400006103f26009546103f2600a546103d26108a8565b600b5490610b53565b33600090815260026020526040902054610aa890610434565b6108a66106a5565b610ab8610b71565b6001600160a01b038116610ae257604051631e4fbdf760e01b8152600060048201526024016104d7565b610aeb81610cbd565b50565b600082821115610b0057610b00610fb8565b610b0a8284610fe4565b9392505050565b600082600003610b2357506000610404565b610b2d8284610ff7565b905081610b3a848361100e565b1461040457610404610fb8565b6000610b0a828461100e565b6000610b5f8284611030565b90508281101561040457610404610fb8565b6003546001600160a01b031633146108a65760405163118cdaa760e01b81523360048201526024016104d7565b600260055403610bc157604051633ee5aeb560e01b815260040160405180910390fd5b6002600555565b8060016000828254610bda9190610fe4565b90915550503360009081526002602052604081208054839290610bfe908490610fe4565b9091555050600054610aeb906001600160a01b03163383610c87565b6040516001600160a01b038481166024830152838116604483015260648201839052610c819186918216906323b872dd906084015b604051602081830303815290604052915060e01b6020820180516001600160e01b038381831617835250505050610d78565b50505050565b6040516001600160a01b03838116602483015260448201839052610cb891859182169063a9059cbb90606401610c4f565b505050565b600380546001600160a01b038381166001600160a01b0319831681179093556040519116919082907f8be0079c531659141344cd1fd0a4f28419497f9722a3daafe3b4186f6b6457e090600090a35050565b6000818310610d1e5781610b0a565b5090919050565b8060016000828254610d379190611030565b90915550503360009081526002602052604081208054839290610d5b908490611030565b9091555050600054610aeb906001600160a01b0316333084610c1a565b6000610d8d6001600160a01b03841683610ddb565b90508051600014158015610db2575080806020019051810190610db09190611043565b155b15610cb857604051635274afe760e01b81526001600160a01b03841660048201526024016104d7565b6060610b0a8383600084600080856001600160a01b03168486604051610e019190611065565b60006040518083038185875af1925050503d8060008114610e3e576040519150601f19603f3d011682016040523d82523d6000602084013e610e43565b606091505b5091509150610e53868383610e5d565b9695505050505050565b606082610e7257610e6d82610eb9565b610b0a565b8151158015610e8957506001600160a01b0384163b155b15610eb257604051639996b31560e01b81526001600160a01b03851660048201526024016104d7565b5080610b0a565b805115610ec95780518082602001fd5b604051630a12f52160e11b815260040160405180910390fd5b80356001600160a01b0381168114610ef957600080fd5b919050565b600060208284031215610f1057600080fd5b610b0a82610ee2565b600060208284031215610f2b57600080fd5b5035919050565b60008060408385031215610f4557600080fd5b610f4e83610ee2565b946020939093013593505050565b60208082526023908201527f43616c6c6572206973206e6f7420746865206f776e6572206f72206465706c6f6040820152623cb2b960e91b606082015260800190565b600060208284031215610fb157600080fd5b5051919050565b634e487b7160e01b600052600160045260246000fd5b634e487b7160e01b600052601160045260246000fd5b8181038181111561040457610404610fce565b808202811582820484141761040457610404610fce565b60008261102b57634e487b7160e01b600052601260045260246000fd5b500490565b8082018082111561040457610404610fce565b60006020828403121561105557600080fd5b81518015158114610b0a57600080fd5b6000825160005b81811015611086576020818601810151858301520161106c565b50600092019182525091905056fea2646970667358221220e91adef347e18878c1726bb5ba168f0285b4ad120d644683c76562a08378b8a364736f6c63430008170033","linkReferences":{}},"methodIdentifiers":{"DURATION()":"1be05289","balanceOf(address)":"70a08231","deployer()":"d5f39488","earned(address)":"008cc262","exit()":"e9fad8ee","getReward()":"3d18b912","lastTimeRewardApplicable()":"80faa57d","lastUpdateTime()":"c8f33c91","notifyRewardAmount(uint256)":"3c6b16ab","owner()":"8da5cb5b","perezoso()":"edd0e0cb","periodFinish()":"ebe2b12b","recoverERC20(address,uint256)":"8980f11f","recoverPerezosoToken()":"5c319d0f","renounceOwnership()":"715018a6","rewardDistribution()":"101114cf","rewardPerToken()":"cd3daf9d","rewardPerTokenStored()":"df136d65","rewardRate()":"7b0a47ee","rewards(address)":"0700037d","setRewardDistribution(address)":"0d68b761","stake(uint256)":"a694fc3a","stakingToken()":"72f702f3","totalSupply()":"18160ddd","transferOwnership(address)":"f2fde38b","userRewardPerTokenPaid(address)":"8b876347","withdraw(uint256)":"2e1a7d4d"},"id":31}