{"abi":[{"type":"constructor","inputs":[{"name":"_stakingToken","type":"address","internalType":"address"}],"stateMutability":"nonpayable"},{"type":"receive","stateMutability":"payable"},{"type":"function","name":"MAX_TIME","inputs":[],"outputs":[{"name":"","type":"uint48","internalType":"uint48"}],"stateMutability":"view"},{"type":"function","name":"durations","inputs":[{"name":"","type":"uint8","internalType":"enum PerezosoStaking.StakingDuration"}],"outputs":[{"name":"","type":"uint48","internalType":"uint48"}],"stateMutability":"view"},{"type":"function","name":"emergencyStop","inputs":[],"outputs":[],"stateMutability":"nonpayable"},{"type":"function","name":"getStakedBalance","inputs":[{"name":"user","type":"address","internalType":"address"}],"outputs":[{"name":"","type":"uint256","internalType":"uint256"}],"stateMutability":"view"},{"type":"function","name":"getUnlockTime","inputs":[{"name":"_staker","type":"address","internalType":"address"}],"outputs":[{"name":"","type":"uint48","internalType":"uint48"}],"stateMutability":"view"},{"type":"function","name":"isStopped","inputs":[],"outputs":[{"name":"","type":"bool","internalType":"bool"}],"stateMutability":"view"},{"type":"function","name":"isUserStaked","inputs":[{"name":"_user","type":"address","internalType":"address"}],"outputs":[{"name":"","type":"bool","internalType":"bool"}],"stateMutability":"view"},{"type":"function","name":"maxTotalStakes","inputs":[],"outputs":[{"name":"","type":"uint256","internalType":"uint256"}],"stateMutability":"view"},{"type":"function","name":"owner","inputs":[],"outputs":[{"name":"","type":"address","internalType":"address"}],"stateMutability":"view"},{"type":"function","name":"recoverETH","inputs":[],"outputs":[],"stateMutability":"nonpayable"},{"type":"function","name":"recoverFunds","inputs":[],"outputs":[],"stateMutability":"nonpayable"},{"type":"function","name":"recoverTokens","inputs":[],"outputs":[],"stateMutability":"nonpayable"},{"type":"function","name":"renounceOwnership","inputs":[],"outputs":[],"stateMutability":"nonpayable"},{"type":"function","name":"rewardToken","inputs":[],"outputs":[{"name":"","type":"address","internalType":"address"}],"stateMutability":"view"},{"type":"function","name":"rewardsPerTier","inputs":[{"name":"","type":"uint8","internalType":"enum PerezosoStaking.StakingDuration"},{"name":"","type":"uint256","internalType":"uint256"}],"outputs":[{"name":"","type":"uint256","internalType":"uint256"}],"stateMutability":"view"},{"type":"function","name":"stake","inputs":[{"name":"tier","type":"uint8","internalType":"enum PerezosoStaking.Tier"},{"name":"_duration","type":"uint8","internalType":"enum PerezosoStaking.StakingDuration"}],"outputs":[],"stateMutability":"nonpayable"},{"type":"function","name":"stakingToken","inputs":[],"outputs":[{"name":"","type":"address","internalType":"address"}],"stateMutability":"view"},{"type":"function","name":"tierMap","inputs":[{"name":"","type":"uint8","internalType":"enum PerezosoStaking.Tier"}],"outputs":[{"name":"minAmountStaked","type":"uint256","internalType":"uint256"}],"stateMutability":"view"},{"type":"function","name":"tokenTotalStaked","inputs":[],"outputs":[{"name":"","type":"uint256","internalType":"uint256"}],"stateMutability":"view"},{"type":"function","name":"transferOwnership","inputs":[{"name":"newOwner","type":"address","internalType":"address"}],"outputs":[],"stateMutability":"nonpayable"},{"type":"function","name":"unStake","inputs":[],"outputs":[],"stateMutability":"nonpayable"},{"type":"function","name":"userMap","inputs":[{"name":"","type":"address","internalType":"address"}],"outputs":[{"name":"stakeTime","type":"uint48","internalType":"uint48"},{"name":"unlockTime","type":"uint48","internalType":"uint48"},{"name":"stakeAmount","type":"uint160","internalType":"uint160"},{"name":"accumulatedRewards","type":"uint256","internalType":"uint256"},{"name":"stakingTier","type":"uint8","internalType":"enum PerezosoStaking.Tier"},{"name":"duration","type":"uint8","internalType":"enum PerezosoStaking.StakingDuration"},{"name":"hasStaked","type":"bool","internalType":"bool"}],"stateMutability":"view"},{"type":"event","name":"Claimed","inputs":[{"name":"wallet","type":"address","indexed":true,"internalType":"address"},{"name":"rewardToken","type":"address","indexed":true,"internalType":"address"},{"name":"amount","type":"uint256","indexed":false,"internalType":"uint256"}],"anonymous":false},{"type":"event","name":"ERC20TokensRecovered","inputs":[{"name":"token","type":"address","indexed":false,"internalType":"address"},{"name":"to","type":"address","indexed":false,"internalType":"address"},{"name":"amount","type":"uint256","indexed":false,"internalType":"uint256"}],"anonymous":false},{"type":"event","name":"OwnershipTransferred","inputs":[{"name":"previousOwner","type":"address","indexed":true,"internalType":"address"},{"name":"newOwner","type":"address","indexed":true,"internalType":"address"}],"anonymous":false},{"type":"event","name":"Stake","inputs":[{"name":"wallet","type":"address","indexed":true,"internalType":"address"},{"name":"amount","type":"uint256","indexed":false,"internalType":"uint256"},{"name":"date","type":"uint256","indexed":false,"internalType":"uint256"},{"name":"tier","type":"uint8","indexed":false,"internalType":"enum PerezosoStaking.Tier"},{"name":"duration","type":"uint8","indexed":false,"internalType":"enum PerezosoStaking.StakingDuration"}],"anonymous":false},{"type":"event","name":"Withdraw","inputs":[{"name":"wallet","type":"address","indexed":true,"internalType":"address"},{"name":"amount","type":"uint256","indexed":false,"internalType":"uint256"},{"name":"date","type":"uint256","indexed":false,"internalType":"uint256"}],"anonymous":false},{"type":"error","name":"AddressEmptyCode","inputs":[{"name":"target","type":"address","internalType":"address"}]},{"type":"error","name":"AddressInsufficientBalance","inputs":[{"name":"account","type":"address","internalType":"address"}]},{"type":"error","name":"FailedInnerCall","inputs":[]},{"type":"error","name":"OwnableInvalidOwner","inputs":[{"name":"owner","type":"address","internalType":"address"}]},{"type":"error","name":"OwnableUnauthorizedAccount","inputs":[{"name":"account","type":"address","internalType":"address"}]},{"type":"error","name":"ReentrancyGuardReentrantCall","inputs":[]},{"type":"error","name":"SafeCastOverflowedUintDowncast","inputs":[{"name":"bits","type":"uint8","internalType":"uint8"},{"name":"value","type":"uint256","internalType":"uint256"}]},{"type":"error","name":"SafeERC20FailedOperation","inputs":[{"name":"token","type":"address","internalType":"address"}]}],"bytecode":{"object":"0x60a06040523480156200001157600080fd5b506040516200184038038062001840833981016040819052620000349162000328565b33806200005c57604051631e4fbdf760e01b8152600060048201526024015b60405180910390fd5b62000067816200014b565b50600180556001600160a01b038116620000d65760405162461bcd60e51b815260206004820152602960248201527f5374616b696e6720746f6b656e2063616e6e6f7420626520746865207a65726f6044820152681030b2323932b9b99760b91b606482015260840162000053565b6001600160a01b0381166080819052600480546001600160a01b03191690911790556200013a6000805260086020527f5eff886ea0ce6ca488a3d6e336d6c0f75f46d19b42c06ce5ee98e42c96d256c7805465ffffffffffff191662278d00179055565b620001446200019b565b5062000370565b600080546001600160a01b038381166001600160a01b0319831681178455604051919092169283917f8be0079c531659141344cd1fd0a4f28419497f9722a3daafe3b4186f6b6457e09190a35050565b6040805160208082018352693f870857a3e0e38000008252825180820184526a027b46536c66c8e30000008152835180830185526a18d0bf423c03d8de000000815284519283019094526af8277896582678ac00000082529192906200021060006b033b2e3c9fd0803ce80000008662000266565b6200022a60016b204fce5e3e250261100000008562000266565b6200024560026c01431e0fae6d7217caa00000008462000266565b6200026060036c0c9f2c9cd04674edea400000008362000266565b50505050565b81600760008560038111156200028057620002806200035a565b60038111156200029457620002946200035a565b81526020810191909152604001600090812091909155815190600790856003811115620002c557620002c56200035a565b6003811115620002d957620002d96200035a565b815260200190815260200160002060010160008060008111156200030157620003016200035a565b80156200031257620003126200035a565b8152602081019190915260400160002055505050565b6000602082840312156200033b57600080fd5b81516001600160a01b03811681146200035357600080fd5b9392505050565b634e487b7160e01b600052602160045260246000fd5b60805161148a620003b66000396000818161034e0152818161079d0152818161087101528181610939015281816109b401528181610a080152610e2d015261148a6000f3fe6080604052600436106101395760003560e01c806373cf575a116100ab578063b77f39fe1161006f578063b77f39fe14610433578063b79550be14610448578063d0ed33dd1461045d578063dbed1e881461047d578063f2fde38b146104c2578063f7c618c1146104e257600080fd5b806373cf575a14610388578063872b26da1461039d5780638da5cb5b146103b357806390ae76d6146103d1578063a44c341a146103f157600080fd5b80633a02a42d116100fd5780633a02a42d1461028b5780633f683b6a146102cb57806346de76f0146102fc57806363a599a414610312578063715018a61461032757806372f702f31461033c57600080fd5b80630614117a146101455780630ae355d31461015c578063257aa21f146101ad57806326949984146101e85780632bcc23f81461020257600080fd5b3661014057005b600080fd5b34801561015157600080fd5b5061015a610502565b005b34801561016857600080fd5b5061019161017736600461121d565b60086020526000908152604090205465ffffffffffff1681565b60405165ffffffffffff90911681526020015b60405180910390f35b3480156101b957600080fd5b506101da6101c8366004611247565b60076020526000908152604090205481565b6040519081526020016101a4565b3480156101f457600080fd5b5061019165ffffffffffff81565b34801561020e57600080fd5b5061027861021d366004611262565b60056020526000908152604090208054600182015460029092015465ffffffffffff80831693600160301b840490911692600160601b90046001600160a01b03169160ff808216916101008104821691620100009091041687565b6040516101a497969594939291906112c5565b34801561029757600080fd5b506101da6102a6366004611262565b6001600160a01b03908116600090815260056020526040902054600160601b90041690565b3480156102d757600080fd5b506004546102ec90600160a01b900460ff1681565b60405190151581526020016101a4565b34801561030857600080fd5b506101da60035481565b34801561031e57600080fd5b5061015a61055f565b34801561033357600080fd5b5061015a61057c565b34801561034857600080fd5b506103707f000000000000000000000000000000000000000000000000000000000000000081565b6040516001600160a01b0390911681526020016101a4565b34801561039457600080fd5b5061015a61058e565b3480156103a957600080fd5b506101da60025481565b3480156103bf57600080fd5b506000546001600160a01b0316610370565b3480156103dd57600080fd5b506101da6103ec366004611320565b6108e0565b3480156103fd57600080fd5b506102ec61040c366004611262565b6001600160a01b031660009081526005602052604090206002015462010000900460ff1690565b34801561043f57600080fd5b5061015a610911565b34801561045457600080fd5b5061015a610aea565b34801561046957600080fd5b5061015a61047836600461134a565b610b0a565b34801561048957600080fd5b50610191610498366004611262565b6001600160a01b0316600090815260056020526040902054600160301b900465ffffffffffff1690565b3480156104ce57600080fd5b5061015a6104dd366004611262565b610eab565b3480156104ee57600080fd5b50600454610370906001600160a01b031681565b61050a610ee9565b610512610f16565b471561055457600080546040516001600160a01b03909116914780156108fc02929091818181858888f19350505050158015610552573d6000803e3d6000fd5b505b61055d60018055565b565b610567610ee9565b6004805460ff60a01b1916600160a01b179055565b610584610ee9565b61055d6000610f40565b610596610f16565b336000908152600560205260409020600281015462010000900460ff166105fd5760405162461bcd60e51b815260206004820152601660248201527527379030b1ba34bb329039ba30b5b2903337bab7321760511b60448201526064015b60405180910390fd5b8054600160301b900465ffffffffffff164210156106565760405162461bcd60e51b815260206004820152601660248201527529ba30b5b29034b99039ba34b636103637b1b5b2b21760511b60448201526064016105f4565b8054600160601b90046001600160a01b0316806106ac5760405162461bcd60e51b81526020600482015260146024820152734e6f20746f6b656e7320746f20756e7374616b6560601b60448201526064016105f4565b81546bffffffffffffffffffffffff1682556002808301805462ff00001916905580548291906000906106e0908490611393565b90915550506002820154600090600790829060ff1660038111156107065761070661128b565b60038111156107175761071761128b565b815260200190815260200160002060010160008460020160019054906101000a900460ff16600081111561074d5761074d61128b565b801561075b5761075b61128b565b81526020019081526020016000205490506000818361077a91906113a6565b6040516370a0823160e01b81523060048201529091506000906001600160a01b037f000000000000000000000000000000000000000000000000000000000000000016906370a0823190602401602060405180830381865afa1580156107e4573d6000803e3d6000fd5b505050506040513d601f19601f8201168201806040525081019061080891906113b9565b9050818110156108645760405162461bcd60e51b815260206004820152602160248201527f436f6e74726163742062616c616e636520697320696e73756666696369656e746044820152601760f91b60648201526084016105f4565b6108986001600160a01b037f0000000000000000000000000000000000000000000000000000000000000000163384610f90565b6040805185815242602082015233917ff279e6a1f5e320cca91135676d9cb6e44ca8a08c0b88342bcdb1144f6511b568910160405180910390a2505050505061055d60018055565b600660205281600052604060002081815481106108fc57600080fd5b90600052602060002001600091509150505481565b610919610ee9565b610921610f16565b6040516370a0823160e01b81523060048201526000907f00000000000000000000000000000000000000000000000000000000000000006001600160a01b0316906370a0823190602401602060405180830381865afa158015610988573d6000803e3d6000fd5b505050506040513d601f19601f820116820180604052508101906109ac91906113b9565b1115610554577f00000000000000000000000000000000000000000000000000000000000000006001600160a01b031663a9059cbb6109f36000546001600160a01b031690565b6040516370a0823160e01b81523060048201527f00000000000000000000000000000000000000000000000000000000000000006001600160a01b0316906370a0823190602401602060405180830381865afa158015610a57573d6000803e3d6000fd5b505050506040513d601f19601f82011682018060405250810190610a7b91906113b9565b6040516001600160e01b031960e085901b1681526001600160a01b03909216600483015260248201526044016020604051808303816000875af1158015610ac6573d6000803e3d6000fd5b505050506040513d601f19601f8201168201806040525081019061055291906113d2565b610af2610ee9565b610afa610f16565b610b02610502565b610554610911565b610b12610f16565b3360009081526005602052604090206002015462010000900460ff1615610b6d5760405162461bcd60e51b815260206004820152600f60248201526e20b63932b0b23c9039ba30b5b2b21760891b60448201526064016105f4565b6103e860035410610bc05760405162461bcd60e51b815260206004820152601960248201527f4d617820746f74616c207374616b657320726561636865642e0000000000000060448201526064016105f4565b600454600160a01b900460ff1615610c115760405162461bcd60e51b815260206004820152601460248201527321b7b73a3930b1ba1034b99039ba37b83832b21760611b60448201526064016105f4565b33600090815260056020526040812090600781856003811115610c3657610c3661128b565b6003811115610c4757610c4761128b565b815260200190815260200160002060000154905060008111610cbf5760405162461bcd60e51b815260206004820152602b60248201527f416d6f756e7420746f207374616b652073686f756c642062652067726561746560448201526a72207468616e207a65726f60a81b60648201526084016105f4565b815465ffffffffffff19164265ffffffffffff1617825560086000848015610ce957610ce961128b565b8015610cf757610cf761128b565b8152602081019190915260400160002054610d1a9065ffffffffffff16426113a6565b825465ffffffffffff91909116600160301b026bffffffffffff0000000000001990911617808355610d6790610d629083906001600160a01b03600160601b909104166113a6565b610ff4565b82546001600160a01b0391909116600160601b026bffffffffffffffffffffffff90911617825560028201805485919060ff19166001836003811115610daf57610daf61128b565b021790555060028201805484919061ff001916610100838015610dd457610dd461128b565b02179055506002808301805462ff00001916620100001790558054829190600090610e009084906113a6565b92505081905550600160036000828254610e1a91906113a6565b90915550610e5590506001600160a01b037f00000000000000000000000000000000000000000000000000000000000000001633308461102c565b336001600160a01b03167ffaee4cb27f7ddfde707e8b018f5ff1e9faada7db39e489b0b8ac9e84227bc63882428787604051610e9494939291906113f4565b60405180910390a25050610ea760018055565b5050565b610eb3610ee9565b6001600160a01b038116610edd57604051631e4fbdf760e01b8152600060048201526024016105f4565b610ee681610f40565b50565b6000546001600160a01b0316331461055d5760405163118cdaa760e01b81523360048201526024016105f4565b600260015403610f3957604051633ee5aeb560e01b815260040160405180910390fd5b6002600155565b600080546001600160a01b038381166001600160a01b0319831681178455604051919092169283917f8be0079c531659141344cd1fd0a4f28419497f9722a3daafe3b4186f6b6457e09190a35050565b6040516001600160a01b03838116602483015260448201839052610fef91859182169063a9059cbb906064015b604051602081830303815290604052915060e01b6020820180516001600160e01b03838183161783525050505061106b565b505050565b60006001600160a01b03821115611028576040516306dfcc6560e41b815260a06004820152602481018390526044016105f4565b5090565b6040516001600160a01b0384811660248301528381166044830152606482018390526110659186918216906323b872dd90608401610fbd565b50505050565b60006110806001600160a01b038416836110ce565b905080516000141580156110a55750808060200190518101906110a391906113d2565b155b15610fef57604051635274afe760e01b81526001600160a01b03841660048201526024016105f4565b60606110dc838360006110e5565b90505b92915050565b60608147101561110a5760405163cd78605960e01b81523060048201526024016105f4565b600080856001600160a01b031684866040516111269190611425565b60006040518083038185875af1925050503d8060008114611163576040519150601f19603f3d011682016040523d82523d6000602084013e611168565b606091505b5091509150611178868383611184565b925050505b9392505050565b60608261119957611194826111e0565b61117d565b81511580156111b057506001600160a01b0384163b155b156111d957604051639996b31560e01b81526001600160a01b03851660048201526024016105f4565b508061117d565b8051156111f05780518082602001fd5b604051630a12f52160e11b815260040160405180910390fd5b80356001811061121857600080fd5b919050565b60006020828403121561122f57600080fd5b6110dc82611209565b80356004811061121857600080fd5b60006020828403121561125957600080fd5b6110dc82611238565b60006020828403121561127457600080fd5b81356001600160a01b038116811461117d57600080fd5b634e487b7160e01b600052602160045260246000fd5b600481106112b1576112b161128b565b9052565b600181106112b1576112b161128b565b65ffffffffffff8881168252871660208201526001600160a01b03861660408201526060810185905260e081016112ff60808301866112a1565b61130c60a08301856112b5565b82151560c083015298975050505050505050565b6000806040838503121561133357600080fd5b61133c83611209565b946020939093013593505050565b6000806040838503121561135d57600080fd5b61136683611238565b915061137460208401611209565b90509250929050565b634e487b7160e01b600052601160045260246000fd5b818103818111156110df576110df61137d565b808201808211156110df576110df61137d565b6000602082840312156113cb57600080fd5b5051919050565b6000602082840312156113e457600080fd5b8151801515811461117d57600080fd5b848152602081018490526080810161140f60408301856112a1565b61141c60608301846112b5565b95945050505050565b6000825160005b81811015611446576020818601810151858301520161142c565b50600092019182525091905056fea2646970667358221220ce89dac848dfb36eea97a7780dffc55b2af86a442307288a285002bdd11683b364736f6c63430008170033","linkReferences":{}},"methodIdentifiers":{"MAX_TIME()":"26949984","durations(uint8)":"0ae355d3","emergencyStop()":"63a599a4","getStakedBalance(address)":"3a02a42d","getUnlockTime(address)":"dbed1e88","isStopped()":"3f683b6a","isUserStaked(address)":"a44c341a","maxTotalStakes()":"46de76f0","owner()":"8da5cb5b","recoverETH()":"0614117a","recoverFunds()":"b79550be","recoverTokens()":"b77f39fe","renounceOwnership()":"715018a6","rewardToken()":"f7c618c1","rewardsPerTier(uint8,uint256)":"90ae76d6","stake(uint8,uint8)":"d0ed33dd","stakingToken()":"72f702f3","tierMap(uint8)":"257aa21f","tokenTotalStaked()":"872b26da","transferOwnership(address)":"f2fde38b","unStake()":"73cf575a","userMap(address)":"2bcc23f8"},"id":38}