{"abi":[{"type":"constructor","inputs":[{"name":"_stakingToken","type":"address","internalType":"address"}],"stateMutability":"nonpayable"},{"type":"receive","stateMutability":"payable"},{"type":"function","name":"MAX_TIME","inputs":[],"outputs":[{"name":"","type":"uint48","internalType":"uint48"}],"stateMutability":"view"},{"type":"function","name":"durations","inputs":[{"name":"","type":"uint8","internalType":"enum PerezosoStaking.StakingDuration"}],"outputs":[{"name":"","type":"uint48","internalType":"uint48"}],"stateMutability":"view"},{"type":"function","name":"emergencyStop","inputs":[],"outputs":[],"stateMutability":"nonpayable"},{"type":"function","name":"getStakedBalance","inputs":[{"name":"user","type":"address","internalType":"address"}],"outputs":[{"name":"","type":"uint256","internalType":"uint256"}],"stateMutability":"view"},{"type":"function","name":"getTotalStakers","inputs":[],"outputs":[{"name":"","type":"uint256","internalType":"uint256"}],"stateMutability":"view"},{"type":"function","name":"getUnlockTime","inputs":[{"name":"_staker","type":"address","internalType":"address"}],"outputs":[{"name":"","type":"uint48","internalType":"uint48"}],"stateMutability":"view"},{"type":"function","name":"isStopped","inputs":[],"outputs":[{"name":"","type":"bool","internalType":"bool"}],"stateMutability":"view"},{"type":"function","name":"isUserStaked","inputs":[{"name":"_user","type":"address","internalType":"address"}],"outputs":[{"name":"","type":"bool","internalType":"bool"}],"stateMutability":"view"},{"type":"function","name":"maxTotalStakes","inputs":[],"outputs":[{"name":"","type":"uint256","internalType":"uint256"}],"stateMutability":"view"},{"type":"function","name":"owner","inputs":[],"outputs":[{"name":"","type":"address","internalType":"address"}],"stateMutability":"view"},{"type":"function","name":"recoverETH","inputs":[],"outputs":[],"stateMutability":"nonpayable"},{"type":"function","name":"recoverFunds","inputs":[],"outputs":[],"stateMutability":"nonpayable"},{"type":"function","name":"recoverTokens","inputs":[],"outputs":[],"stateMutability":"nonpayable"},{"type":"function","name":"renounceOwnership","inputs":[],"outputs":[],"stateMutability":"nonpayable"},{"type":"function","name":"rewardToken","inputs":[],"outputs":[{"name":"","type":"address","internalType":"address"}],"stateMutability":"view"},{"type":"function","name":"rewardsPerTier","inputs":[{"name":"","type":"uint8","internalType":"enum PerezosoStaking.StakingDuration"},{"name":"","type":"uint256","internalType":"uint256"}],"outputs":[{"name":"","type":"uint256","internalType":"uint256"}],"stateMutability":"view"},{"type":"function","name":"stake","inputs":[{"name":"tier","type":"uint8","internalType":"enum PerezosoStaking.Tier"},{"name":"_duration","type":"uint8","internalType":"enum PerezosoStaking.StakingDuration"}],"outputs":[],"stateMutability":"nonpayable"},{"type":"function","name":"stakingToken","inputs":[],"outputs":[{"name":"","type":"address","internalType":"address"}],"stateMutability":"view"},{"type":"function","name":"tierMap","inputs":[{"name":"","type":"uint8","internalType":"enum PerezosoStaking.Tier"}],"outputs":[{"name":"minAmountStaked","type":"uint256","internalType":"uint256"}],"stateMutability":"view"},{"type":"function","name":"tokenTotalStaked","inputs":[],"outputs":[{"name":"","type":"uint256","internalType":"uint256"}],"stateMutability":"view"},{"type":"function","name":"totalStakers","inputs":[],"outputs":[{"name":"","type":"uint256","internalType":"uint256"}],"stateMutability":"view"},{"type":"function","name":"transferOwnership","inputs":[{"name":"newOwner","type":"address","internalType":"address"}],"outputs":[],"stateMutability":"nonpayable"},{"type":"function","name":"unStake","inputs":[],"outputs":[],"stateMutability":"nonpayable"},{"type":"function","name":"userMap","inputs":[{"name":"","type":"address","internalType":"address"}],"outputs":[{"name":"stakeTime","type":"uint48","internalType":"uint48"},{"name":"unlockTime","type":"uint48","internalType":"uint48"},{"name":"stakeAmount","type":"uint160","internalType":"uint160"},{"name":"accumulatedRewards","type":"uint256","internalType":"uint256"},{"name":"stakingTier","type":"uint8","internalType":"enum PerezosoStaking.Tier"},{"name":"duration","type":"uint8","internalType":"enum PerezosoStaking.StakingDuration"},{"name":"hasStaked","type":"bool","internalType":"bool"}],"stateMutability":"view"},{"type":"event","name":"Claimed","inputs":[{"name":"wallet","type":"address","indexed":true,"internalType":"address"},{"name":"rewardToken","type":"address","indexed":true,"internalType":"address"},{"name":"amount","type":"uint256","indexed":false,"internalType":"uint256"}],"anonymous":false},{"type":"event","name":"ERC20TokensRecovered","inputs":[{"name":"token","type":"address","indexed":false,"internalType":"address"},{"name":"to","type":"address","indexed":false,"internalType":"address"},{"name":"amount","type":"uint256","indexed":false,"internalType":"uint256"}],"anonymous":false},{"type":"event","name":"OwnershipTransferred","inputs":[{"name":"previousOwner","type":"address","indexed":true,"internalType":"address"},{"name":"newOwner","type":"address","indexed":true,"internalType":"address"}],"anonymous":false},{"type":"event","name":"Stake","inputs":[{"name":"wallet","type":"address","indexed":true,"internalType":"address"},{"name":"amount","type":"uint256","indexed":false,"internalType":"uint256"},{"name":"date","type":"uint256","indexed":false,"internalType":"uint256"},{"name":"tier","type":"uint8","indexed":false,"internalType":"enum PerezosoStaking.Tier"},{"name":"duration","type":"uint8","indexed":false,"internalType":"enum PerezosoStaking.StakingDuration"}],"anonymous":false},{"type":"event","name":"Withdraw","inputs":[{"name":"wallet","type":"address","indexed":true,"internalType":"address"},{"name":"amount","type":"uint256","indexed":false,"internalType":"uint256"},{"name":"date","type":"uint256","indexed":false,"internalType":"uint256"}],"anonymous":false},{"type":"error","name":"AddressEmptyCode","inputs":[{"name":"target","type":"address","internalType":"address"}]},{"type":"error","name":"AddressInsufficientBalance","inputs":[{"name":"account","type":"address","internalType":"address"}]},{"type":"error","name":"FailedInnerCall","inputs":[]},{"type":"error","name":"OwnableInvalidOwner","inputs":[{"name":"owner","type":"address","internalType":"address"}]},{"type":"error","name":"OwnableUnauthorizedAccount","inputs":[{"name":"account","type":"address","internalType":"address"}]},{"type":"error","name":"ReentrancyGuardReentrantCall","inputs":[]},{"type":"error","name":"SafeCastOverflowedUintDowncast","inputs":[{"name":"bits","type":"uint8","internalType":"uint8"},{"name":"value","type":"uint256","internalType":"uint256"}]},{"type":"error","name":"SafeERC20FailedOperation","inputs":[{"name":"token","type":"address","internalType":"address"}]}],"bytecode":{"object":"0x60a06040523480156200001157600080fd5b50604051620018ba380380620018ba83398101604081905262000034916200032d565b33806200005c57604051631e4fbdf760e01b8152600060048201526024015b60405180910390fd5b620000678162000150565b50600180556001600160a01b038116620000d65760405162461bcd60e51b815260206004820152602960248201527f5374616b696e6720746f6b656e2063616e6e6f7420626520746865207a65726f6044820152681030b2323932b9b99760b91b606482015260840162000053565b6001600160a01b0381166080819052600580546001600160a01b031916909117905560006004556200013f6000805260096020527fec8156718a8372b1db44bb411437d0870f3e3790d4a08526d024ce1b0b668f6b805465ffffffffffff191662278d00179055565b62000149620001a0565b5062000375565b600080546001600160a01b038381166001600160a01b0319831681178455604051919092169283917f8be0079c531659141344cd1fd0a4f28419497f9722a3daafe3b4186f6b6457e09190a35050565b6040805160208082018352693f870857a3e0e38000008252825180820184526a027b46536c66c8e30000008152835180830185526a18d0bf423c03d8de000000815284519283019094526af8277896582678ac00000082529192906200021560006b033b2e3c9fd0803ce8000000866200026b565b6200022f60016b204fce5e3e25026110000000856200026b565b6200024a60026c01431e0fae6d7217caa0000000846200026b565b6200026560036c0c9f2c9cd04674edea40000000836200026b565b50505050565b81600860008560038111156200028557620002856200035f565b60038111156200029957620002996200035f565b81526020810191909152604001600090812091909155815190600890856003811115620002ca57620002ca6200035f565b6003811115620002de57620002de6200035f565b815260200190815260200160002060010160008060008111156200030657620003066200035f565b80156200031757620003176200035f565b8152602081019190915260400160002055505050565b6000602082840312156200034057600080fd5b81516001600160a01b03811681146200035857600080fd5b9392505050565b634e487b7160e01b600052602160045260246000fd5b6080516114ff620003bb60003960008181610379015281816107f8015281816108cc0152818161099401528181610a0f01528181610a630152610ea201526114ff6000f3fe60806040526004361061014f5760003560e01c806373cf575a116100b6578063b77f39fe1161006f578063b77f39fe14610474578063b79550be14610489578063d0ed33dd1461049e578063dbed1e88146104be578063f2fde38b14610503578063f7c618c11461052357600080fd5b806373cf575a146103b357806386989038146103c8578063872b26da146103de5780638da5cb5b146103f457806390ae76d614610412578063a44c341a1461043257600080fd5b80633a02a42d116101085780633a02a42d146102b65780633f683b6a146102f657806346de76f01461032757806363a599a41461033d578063715018a61461035257806372f702f31461036757600080fd5b80630614117a1461015b5780630ae355d314610172578063257aa21f146101c357806326949984146101fe5780632bcc23f81461021857806331ed0db4146102a157600080fd5b3661015657005b600080fd5b34801561016757600080fd5b50610170610543565b005b34801561017e57600080fd5b506101a761018d366004611292565b60096020526000908152604090205465ffffffffffff1681565b60405165ffffffffffff90911681526020015b60405180910390f35b3480156101cf57600080fd5b506101f06101de3660046112bc565b60086020526000908152604090205481565b6040519081526020016101ba565b34801561020a57600080fd5b506101a765ffffffffffff81565b34801561022457600080fd5b5061028e6102333660046112d7565b60066020526000908152604090208054600182015460029092015465ffffffffffff80831693600160301b840490911692600160601b90046001600160a01b03169160ff808216916101008104821691620100009091041687565b6040516101ba979695949392919061133a565b3480156102ad57600080fd5b506004546101f0565b3480156102c257600080fd5b506101f06102d13660046112d7565b6001600160a01b03908116600090815260066020526040902054600160601b90041690565b34801561030257600080fd5b5060055461031790600160a01b900460ff1681565b60405190151581526020016101ba565b34801561033357600080fd5b506101f060035481565b34801561034957600080fd5b506101706105a0565b34801561035e57600080fd5b506101706105bd565b34801561037357600080fd5b5061039b7f000000000000000000000000000000000000000000000000000000000000000081565b6040516001600160a01b0390911681526020016101ba565b3480156103bf57600080fd5b506101706105cf565b3480156103d457600080fd5b506101f060045481565b3480156103ea57600080fd5b506101f060025481565b34801561040057600080fd5b506000546001600160a01b031661039b565b34801561041e57600080fd5b506101f061042d366004611395565b61093b565b34801561043e57600080fd5b5061031761044d3660046112d7565b6001600160a01b031660009081526006602052604090206002015462010000900460ff1690565b34801561048057600080fd5b5061017061096c565b34801561049557600080fd5b50610170610b45565b3480156104aa57600080fd5b506101706104b93660046113bf565b610b65565b3480156104ca57600080fd5b506101a76104d93660046112d7565b6001600160a01b0316600090815260066020526040902054600160301b900465ffffffffffff1690565b34801561050f57600080fd5b5061017061051e3660046112d7565b610f20565b34801561052f57600080fd5b5060055461039b906001600160a01b031681565b61054b610f5e565b610553610f8b565b471561059557600080546040516001600160a01b03909116914780156108fc02929091818181858888f19350505050158015610593573d6000803e3d6000fd5b505b61059e60018055565b565b6105a8610f5e565b6005805460ff60a01b1916600160a01b179055565b6105c5610f5e565b61059e6000610fb5565b6105d7610f8b565b336000908152600660205260409020600281015462010000900460ff1661063e5760405162461bcd60e51b815260206004820152601660248201527527379030b1ba34bb329039ba30b5b2903337bab7321760511b60448201526064015b60405180910390fd5b8054600160301b900465ffffffffffff164210156106975760405162461bcd60e51b815260206004820152601660248201527529ba30b5b29034b99039ba34b636103637b1b5b2b21760511b6044820152606401610635565b8054600160601b90046001600160a01b0316806106ed5760405162461bcd60e51b81526020600482015260146024820152734e6f20746f6b656e7320746f20756e7374616b6560601b6044820152606401610635565b81546bffffffffffffffffffffffff1682556002808301805462ff0000191690558054829190600090610721908490611408565b9250508190555060016004600082825461073b9190611408565b90915550506002820154600090600890829060ff16600381111561076157610761611300565b600381111561077257610772611300565b815260200190815260200160002060010160008460020160019054906101000a900460ff1660008111156107a8576107a8611300565b80156107b6576107b6611300565b8152602001908152602001600020549050600081836107d5919061141b565b6040516370a0823160e01b81523060048201529091506000906001600160a01b037f000000000000000000000000000000000000000000000000000000000000000016906370a0823190602401602060405180830381865afa15801561083f573d6000803e3d6000fd5b505050506040513d601f19601f82011682018060405250810190610863919061142e565b9050818110156108bf5760405162461bcd60e51b815260206004820152602160248201527f436f6e74726163742062616c616e636520697320696e73756666696369656e746044820152601760f91b6064820152608401610635565b6108f36001600160a01b037f0000000000000000000000000000000000000000000000000000000000000000163384611005565b6040805185815242602082015233917ff279e6a1f5e320cca91135676d9cb6e44ca8a08c0b88342bcdb1144f6511b568910160405180910390a2505050505061059e60018055565b6007602052816000526040600020818154811061095757600080fd5b90600052602060002001600091509150505481565b610974610f5e565b61097c610f8b565b6040516370a0823160e01b81523060048201526000907f00000000000000000000000000000000000000000000000000000000000000006001600160a01b0316906370a0823190602401602060405180830381865afa1580156109e3573d6000803e3d6000fd5b505050506040513d601f19601f82011682018060405250810190610a07919061142e565b1115610595577f00000000000000000000000000000000000000000000000000000000000000006001600160a01b031663a9059cbb610a4e6000546001600160a01b031690565b6040516370a0823160e01b81523060048201527f00000000000000000000000000000000000000000000000000000000000000006001600160a01b0316906370a0823190602401602060405180830381865afa158015610ab2573d6000803e3d6000fd5b505050506040513d601f19601f82011682018060405250810190610ad6919061142e565b6040516001600160e01b031960e085901b1681526001600160a01b03909216600483015260248201526044016020604051808303816000875af1158015610b21573d6000803e3d6000fd5b505050506040513d601f19601f820116820180604052508101906105939190611447565b610b4d610f5e565b610b55610f8b565b610b5d610543565b61059561096c565b610b6d610f8b565b3360009081526006602052604090206002015462010000900460ff1615610bc85760405162461bcd60e51b815260206004820152600f60248201526e20b63932b0b23c9039ba30b5b2b21760891b6044820152606401610635565b6103e860035410610c1b5760405162461bcd60e51b815260206004820152601960248201527f4d617820746f74616c207374616b657320726561636865642e000000000000006044820152606401610635565b600554600160a01b900460ff1615610c6c5760405162461bcd60e51b815260206004820152601460248201527321b7b73a3930b1ba1034b99039ba37b83832b21760611b6044820152606401610635565b33600090815260066020526040812090600881856003811115610c9157610c91611300565b6003811115610ca257610ca2611300565b815260200190815260200160002060000154905060008111610d1a5760405162461bcd60e51b815260206004820152602b60248201527f416d6f756e7420746f207374616b652073686f756c642062652067726561746560448201526a72207468616e207a65726f60a81b6064820152608401610635565b815465ffffffffffff19164265ffffffffffff1617825560096000848015610d4457610d44611300565b8015610d5257610d52611300565b8152602081019190915260400160002054610d759065ffffffffffff164261141b565b825465ffffffffffff91909116600160301b026bffffffffffff0000000000001990911617808355610dc290610dbd9083906001600160a01b03600160601b9091041661141b565b611069565b82546001600160a01b0391909116600160601b026bffffffffffffffffffffffff90911617825560028201805485919060ff19166001836003811115610e0a57610e0a611300565b021790555060028201805484919061ff001916610100838015610e2f57610e2f611300565b02179055506002808301805462ff00001916620100001790558054829190600090610e5b90849061141b565b92505081905550600160036000828254610e75919061141b565b92505081905550600160046000828254610e8f919061141b565b90915550610eca90506001600160a01b037f0000000000000000000000000000000000000000000000000000000000000000163330846110a1565b336001600160a01b03167ffaee4cb27f7ddfde707e8b018f5ff1e9faada7db39e489b0b8ac9e84227bc63882428787604051610f099493929190611469565b60405180910390a25050610f1c60018055565b5050565b610f28610f5e565b6001600160a01b038116610f5257604051631e4fbdf760e01b815260006004820152602401610635565b610f5b81610fb5565b50565b6000546001600160a01b0316331461059e5760405163118cdaa760e01b8152336004820152602401610635565b600260015403610fae57604051633ee5aeb560e01b815260040160405180910390fd5b6002600155565b600080546001600160a01b038381166001600160a01b0319831681178455604051919092169283917f8be0079c531659141344cd1fd0a4f28419497f9722a3daafe3b4186f6b6457e09190a35050565b6040516001600160a01b0383811660248301526044820183905261106491859182169063a9059cbb906064015b604051602081830303815290604052915060e01b6020820180516001600160e01b0383818316178352505050506110e0565b505050565b60006001600160a01b0382111561109d576040516306dfcc6560e41b815260a0600482015260248101839052604401610635565b5090565b6040516001600160a01b0384811660248301528381166044830152606482018390526110da9186918216906323b872dd90608401611032565b50505050565b60006110f56001600160a01b03841683611143565b9050805160001415801561111a5750808060200190518101906111189190611447565b155b1561106457604051635274afe760e01b81526001600160a01b0384166004820152602401610635565b60606111518383600061115a565b90505b92915050565b60608147101561117f5760405163cd78605960e01b8152306004820152602401610635565b600080856001600160a01b0316848660405161119b919061149a565b60006040518083038185875af1925050503d80600081146111d8576040519150601f19603f3d011682016040523d82523d6000602084013e6111dd565b606091505b50915091506111ed8683836111f9565b925050505b9392505050565b60608261120e5761120982611255565b6111f2565b815115801561122557506001600160a01b0384163b155b1561124e57604051639996b31560e01b81526001600160a01b0385166004820152602401610635565b50806111f2565b8051156112655780518082602001fd5b604051630a12f52160e11b815260040160405180910390fd5b80356001811061128d57600080fd5b919050565b6000602082840312156112a457600080fd5b6111518261127e565b80356004811061128d57600080fd5b6000602082840312156112ce57600080fd5b611151826112ad565b6000602082840312156112e957600080fd5b81356001600160a01b03811681146111f257600080fd5b634e487b7160e01b600052602160045260246000fd5b6004811061132657611326611300565b9052565b6001811061132657611326611300565b65ffffffffffff8881168252871660208201526001600160a01b03861660408201526060810185905260e081016113746080830186611316565b61138160a083018561132a565b82151560c083015298975050505050505050565b600080604083850312156113a857600080fd5b6113b18361127e565b946020939093013593505050565b600080604083850312156113d257600080fd5b6113db836112ad565b91506113e96020840161127e565b90509250929050565b634e487b7160e01b600052601160045260246000fd5b81810381811115611154576111546113f2565b80820180821115611154576111546113f2565b60006020828403121561144057600080fd5b5051919050565b60006020828403121561145957600080fd5b815180151581146111f257600080fd5b84815260208101849052608081016114846040830185611316565b611491606083018461132a565b95945050505050565b6000825160005b818110156114bb57602081860181015185830152016114a1565b50600092019182525091905056fea26469706673582212200709b1c20c0a3f1d21052b7d344e866947fd65e580d5c1cdf85b1d15d51be14164736f6c63430008170033","linkReferences":{}},"methodIdentifiers":{"MAX_TIME()":"26949984","durations(uint8)":"0ae355d3","emergencyStop()":"63a599a4","getStakedBalance(address)":"3a02a42d","getTotalStakers()":"31ed0db4","getUnlockTime(address)":"dbed1e88","isStopped()":"3f683b6a","isUserStaked(address)":"a44c341a","maxTotalStakes()":"46de76f0","owner()":"8da5cb5b","recoverETH()":"0614117a","recoverFunds()":"b79550be","recoverTokens()":"b77f39fe","renounceOwnership()":"715018a6","rewardToken()":"f7c618c1","rewardsPerTier(uint8,uint256)":"90ae76d6","stake(uint8,uint8)":"d0ed33dd","stakingToken()":"72f702f3","tierMap(uint8)":"257aa21f","tokenTotalStaked()":"872b26da","totalStakers()":"86989038","transferOwnership(address)":"f2fde38b","unStake()":"73cf575a","userMap(address)":"2bcc23f8"},"id":38}