{"abi":[{"type":"constructor","inputs":[{"name":"_owner","type":"address","internalType":"address"},{"name":"_perezoso","type":"address","internalType":"address"}],"stateMutability":"nonpayable"},{"type":"function","name":"DURATION","inputs":[],"outputs":[{"name":"","type":"uint256","internalType":"uint256"}],"stateMutability":"view"},{"type":"function","name":"balanceOf","inputs":[{"name":"account","type":"address","internalType":"address"}],"outputs":[{"name":"","type":"uint256","internalType":"uint256"}],"stateMutability":"view"},{"type":"function","name":"earned","inputs":[{"name":"account","type":"address","internalType":"address"}],"outputs":[{"name":"","type":"uint256","internalType":"uint256"}],"stateMutability":"view"},{"type":"function","name":"earnedOnStake","inputs":[{"name":"account","type":"address","internalType":"address"},{"name":"index","type":"uint256","internalType":"uint256"}],"outputs":[{"name":"","type":"uint256","internalType":"uint256"}],"stateMutability":"view"},{"type":"function","name":"getAllStakes","inputs":[{"name":"user","type":"address","internalType":"address"}],"outputs":[{"name":"","type":"tuple[]","internalType":"struct StakingRewards.Stake[]","components":[{"name":"amount","type":"uint256","internalType":"uint256"},{"name":"lockPeriod","type":"uint256","internalType":"uint256"},{"name":"multiplier","type":"uint256","internalType":"uint256"},{"name":"lockEnd","type":"uint256","internalType":"uint256"}]}],"stateMutability":"view"},{"type":"function","name":"getReward","inputs":[],"outputs":[],"stateMutability":"nonpayable"},{"type":"function","name":"lastTimeRewardApplicable","inputs":[],"outputs":[{"name":"","type":"uint256","internalType":"uint256"}],"stateMutability":"view"},{"type":"function","name":"lastUpdateTime","inputs":[],"outputs":[{"name":"","type":"uint256","internalType":"uint256"}],"stateMutability":"view"},{"type":"function","name":"lockMultipliers","inputs":[{"name":"","type":"uint256","internalType":"uint256"}],"outputs":[{"name":"","type":"uint256","internalType":"uint256"}],"stateMutability":"view"},{"type":"function","name":"lockPeriods","inputs":[{"name":"","type":"uint256","internalType":"uint256"}],"outputs":[{"name":"","type":"uint256","internalType":"uint256"}],"stateMutability":"view"},{"type":"function","name":"notifyRewardAmount","inputs":[{"name":"_amount","type":"uint256","internalType":"uint256"}],"outputs":[],"stateMutability":"nonpayable"},{"type":"function","name":"owner","inputs":[],"outputs":[{"name":"","type":"address","internalType":"address"}],"stateMutability":"view"},{"type":"function","name":"perezoso","inputs":[],"outputs":[{"name":"","type":"address","internalType":"contract IERC20"}],"stateMutability":"view"},{"type":"function","name":"perezosoToken","inputs":[],"outputs":[{"name":"","type":"address","internalType":"contract IERC20"}],"stateMutability":"view"},{"type":"function","name":"periodFinish","inputs":[],"outputs":[{"name":"","type":"uint256","internalType":"uint256"}],"stateMutability":"view"},{"type":"function","name":"renounceOwnership","inputs":[],"outputs":[],"stateMutability":"nonpayable"},{"type":"function","name":"rewardPerToken","inputs":[],"outputs":[{"name":"","type":"uint256","internalType":"uint256"}],"stateMutability":"view"},{"type":"function","name":"rewardPerTokenStored","inputs":[],"outputs":[{"name":"","type":"uint256","internalType":"uint256"}],"stateMutability":"view"},{"type":"function","name":"rewardRate","inputs":[],"outputs":[{"name":"","type":"uint256","internalType":"uint256"}],"stateMutability":"view"},{"type":"function","name":"rewards","inputs":[{"name":"","type":"address","internalType":"address"}],"outputs":[{"name":"","type":"uint256","internalType":"uint256"}],"stateMutability":"view"},{"type":"function","name":"rewardsDistribution","inputs":[],"outputs":[{"name":"","type":"address","internalType":"address"}],"stateMutability":"view"},{"type":"function","name":"setRewardsDistribution","inputs":[{"name":"_rewardsDistribution","type":"address","internalType":"address"}],"outputs":[],"stateMutability":"nonpayable"},{"type":"function","name":"stake","inputs":[{"name":"amount","type":"uint256","internalType":"uint256"},{"name":"lockPeriod","type":"uint256","internalType":"uint256"}],"outputs":[],"stateMutability":"nonpayable"},{"type":"function","name":"stake","inputs":[{"name":"amount","type":"uint256","internalType":"uint256"}],"outputs":[],"stateMutability":"nonpayable"},{"type":"function","name":"stakes","inputs":[{"name":"","type":"address","internalType":"address"},{"name":"","type":"uint256","internalType":"uint256"}],"outputs":[{"name":"amount","type":"uint256","internalType":"uint256"},{"name":"lockPeriod","type":"uint256","internalType":"uint256"},{"name":"multiplier","type":"uint256","internalType":"uint256"},{"name":"lockEnd","type":"uint256","internalType":"uint256"}],"stateMutability":"view"},{"type":"function","name":"stakesCount","inputs":[{"name":"user","type":"address","internalType":"address"}],"outputs":[{"name":"","type":"uint256","internalType":"uint256"}],"stateMutability":"view"},{"type":"function","name":"totalSupply","inputs":[],"outputs":[{"name":"","type":"uint256","internalType":"uint256"}],"stateMutability":"view"},{"type":"function","name":"transferOwnership","inputs":[{"name":"newOwner","type":"address","internalType":"address"}],"outputs":[],"stateMutability":"nonpayable"},{"type":"function","name":"updateMyRewards","inputs":[],"outputs":[],"stateMutability":"nonpayable"},{"type":"function","name":"userRewardPerTokenPaid","inputs":[{"name":"","type":"address","internalType":"address"}],"outputs":[{"name":"","type":"uint256","internalType":"uint256"}],"stateMutability":"view"},{"type":"function","name":"withdraw","inputs":[{"name":"stakeIndex","type":"uint256","internalType":"uint256"}],"outputs":[],"stateMutability":"nonpayable"},{"type":"event","name":"OwnershipTransferred","inputs":[{"name":"previousOwner","type":"address","indexed":true,"internalType":"address"},{"name":"newOwner","type":"address","indexed":true,"internalType":"address"}],"anonymous":false},{"type":"event","name":"RewardAdded","inputs":[{"name":"reward","type":"uint256","indexed":false,"internalType":"uint256"}],"anonymous":false},{"type":"event","name":"RewardPaid","inputs":[{"name":"user","type":"address","indexed":true,"internalType":"address"},{"name":"reward","type":"uint256","indexed":false,"internalType":"uint256"}],"anonymous":false},{"type":"event","name":"Staked","inputs":[{"name":"user","type":"address","indexed":true,"internalType":"address"},{"name":"amount","type":"uint256","indexed":false,"internalType":"uint256"},{"name":"lockPeriod","type":"uint256","indexed":false,"internalType":"uint256"}],"anonymous":false},{"type":"event","name":"Withdrawn","inputs":[{"name":"user","type":"address","indexed":true,"internalType":"address"},{"name":"amount","type":"uint256","indexed":false,"internalType":"uint256"}],"anonymous":false},{"type":"error","name":"AddressEmptyCode","inputs":[{"name":"target","type":"address","internalType":"address"}]},{"type":"error","name":"AddressInsufficientBalance","inputs":[{"name":"account","type":"address","internalType":"address"}]},{"type":"error","name":"FailedInnerCall","inputs":[]},{"type":"error","name":"OwnableInvalidOwner","inputs":[{"name":"owner","type":"address","internalType":"address"}]},{"type":"error","name":"OwnableUnauthorizedAccount","inputs":[{"name":"account","type":"address","internalType":"address"}]},{"type":"error","name":"ReentrancyGuardReentrantCall","inputs":[]},{"type":"error","name":"SafeERC20FailedOperation","inputs":[{"name":"token","type":"address","internalType":"address"}]}],"bytecode":{"object":"0x6080604052600080546001600160a01b0319167353ff62409b219ccaff01042bb2743211bb99882e17815560078190556008553480156200003f57600080fd5b5060405162001851380380620018518339810160408190526200006291620002e6565b816001600160a01b0381166200009357604051631e4fbdf760e01b8152600060048201526024015b60405180910390fd5b6200009e8162000202565b506001600555600680546001600160a01b0319166001600160a01b038316179055620000ca8262000254565b505060017f029200d317bd3c627ef2dfb8eb0ac53de004b823b44227f96188945b86f3ea1481905560027f41a943592dcb38357051d8bb21c93c3e9929f831d71d3bcbf8356e26b754ad5281905560037f938ef6952fec78e378d6044ba43991d1f3c60e4301dbee42c94cfcf51f26e1df81905560067f267da60f6948bbe827305775f1705657649b2440d50492aecd54e48f5d21a166819055600f6020527f169f97de0d9a84d840042b17d3c6b9638b3d6fd9024c9eb0c7a306a17b49f88f939093557fa74ba3945261e09fde15ba3db55005b205e61eeb4ad811ac0faa2b315bffeead919091557f45f76dafbbad695564362934e24d72eedc57f9fc1a65f39bca62176cc82968285560008190527fb5a1e7cda73b1608e93d4d50ab796c3d35aa6216cb006a1f920df154d13ff618556200031e565b600380546001600160a01b038381166001600160a01b0319831681179093556040519116919082907f8be0079c531659141344cd1fd0a4f28419497f9722a3daafe3b4186f6b6457e090600090a35050565b6200025e62000298565b6001600160a01b0381166200028a57604051631e4fbdf760e01b8152600060048201526024016200008a565b620002958162000202565b50565b6003546001600160a01b03163314620002c75760405163118cdaa760e01b81523360048201526024016200008a565b565b80516001600160a01b0381168114620002e157600080fd5b919050565b60008060408385031215620002fa57600080fd5b6200030583620002c9565b91506200031560208401620002c9565b90509250929050565b611523806200032e6000396000f3fe608060405234801561001057600080fd5b50600436106101e45760003560e01c806370a082311161010f578063a694fc3a116100a2578063df136d6511610071578063df136d6514610444578063ebe2b12b1461044d578063edd0e0cb14610456578063f2fde38b1461046957600080fd5b8063a694fc3a14610400578063c8f33c9114610413578063cd3daf9d1461041c578063dd6b21be1461042457600080fd5b806380faa57d116100de57806380faa57d146103bf5780638b876347146103c75780638d583d36146103e75780638da5cb5b146103ef57600080fd5b806370a0823114610372578063715018a61461039b5780637b0472f0146103a35780637b0a47ee146103b657600080fd5b80631be05289116101875780633fc6df6e116101565780633fc6df6e146102f957806347cbeb171461030c5780634c8f2a781461031f578063584b62a11461033f57600080fd5b80631be05289146102c05780632e1a7d4d146102cb5780633c6b16ab146102de5780633d18b912146102f157600080fd5b80630e36e355116101c35780630e36e3551461024f57806318160ddd1461027857806319762143146102805780631ba818121461029557600080fd5b80628cc262146101e9578063042389941461020f5780630700037d1461022f575b600080fd5b6101fc6101f7366004611317565b61047c565b6040519081526020015b60405180910390f35b61022261021d366004611317565b6104f9565b6040516102069190611332565b6101fc61023d366004611317565b600c6020526000908152604090205481565b6101fc61025d366004611317565b6001600160a01b03166000908152600d602052604090205490565b6010546101fc565b61029361028e366004611317565b610596565b005b6000546102a8906001600160a01b031681565b6040516001600160a01b039091168152602001610206565b6101fc6301e1338081565b6102936102d9366004611396565b6105c0565b6102936102ec366004611396565b6108ab565b610293610a25565b6004546102a8906001600160a01b031681565b6101fc61031a3660046113af565b610af6565b6101fc61032d366004611396565b600e6020526000908152604090205481565b61035261034d3660046113af565b610c22565b604080519485526020850193909352918301526060820152608001610206565b6101fc610380366004611317565b6001600160a01b031660009081526011602052604090205490565b610293610c68565b6102936103b13660046113d9565b610c7c565b6101fc60085481565b6101fc610e79565b6101fc6103d5366004611317565b600b6020526000908152604090205481565b610293610e8c565b6003546001600160a01b03166102a8565b61029361040e366004611396565b610eea565b6101fc60095481565b6101fc610f42565b6101fc610432366004611396565b600f6020526000908152604090205481565b6101fc600a5481565b6101fc60075481565b6006546102a8906001600160a01b031681565b610293610477366004611317565b610fc5565b6001600160a01b0381166000908152600c6020908152604080832054600b909252822054670de0b6b3a7640000906104b2610f42565b6104bc9190611411565b6001600160a01b0385166000908152601160205260409020546104df9190611424565b6104e9919061143b565b6104f3919061145d565b92915050565b6001600160a01b0381166000908152600d60209081526040808320805482518185028101850190935280835260609492939192909184015b8282101561058b578382906000526020600020906004020160405180608001604052908160008201548152602001600182015481526020016002820154815260200160038201548152505081526020019060010190610531565b505050509050919050565b61059e611000565b600480546001600160a01b0319166001600160a01b0392909216919091179055565b336105c9610f42565b600a556105d4610e79565b6009556001600160a01b0381161561061b576105ef8161047c565b6001600160a01b0382166000908152600c6020908152604080832093909355600a54600b909152919020555b336000908152600d602052604090205482106106745760405162461bcd60e51b8152602060048201526013602482015272092dcecc2d8d2c840e6e8c2d6ca40d2dcc8caf606b1b60448201526064015b60405180910390fd5b336000908152600d6020526040812080548490811061069557610695611470565b9060005260206000209060040201905060008160000154116106f05760405162461bcd60e51b81526020600482015260146024820152734e6f207374616b6520746f20776974686472617760601b604482015260640161066b565b80600301544210156107365760405162461bcd60e51b815260206004820152600f60248201526e14dd185ad9481a5cc81b1bd8dad959608a1b604482015260640161066b565b80546010805460009061074a908490611411565b909155505080543360009081526011602052604081208054909190610770908490611411565b909155505080546107809061102d565b805460405190815233907f7084f5476618d8e60b11ef0d7d3f06914655adb8793e28ff7f018d4c76d505d59060200160405180910390a2336000908152600d6020526040902080546107d490600190611411565b815481106107e4576107e4611470565b9060005260206000209060040201600d6000336001600160a01b03166001600160a01b03168152602001908152602001600020848154811061082857610828611470565b60009182526020808320845460049093020191825560018085015490830155600280850154908301556003938401549390910192909255338152600d9091526040902080548061087a5761087a611486565b6000828152602081206004600019909301928302018181556001810182905560028101829055600301559055505050565b60006108b5610f42565b600a556108c0610e79565b6009556001600160a01b03811615610907576108db8161047c565b6001600160a01b0382166000908152600c6020908152604080832093909355600a54600b909152919020555b60075442106109265761091e6301e133808361143b565b6008556109be565b6000426007546109369190611411565b90506000600854826109489190611424565b9050600061095a6301e133808361143b565b610964908661145d565b90506008548110156109b85760405162461bcd60e51b815260206004820152601760248201527f4e657720726577617264207261746520746f6f206c6f77000000000000000000604482015260640161066b565b60085550505b4260098190556109d3906301e133809061145d565b6007556006546109ee906001600160a01b0316333085611084565b6040518281527fde88a922e0d3b88b24e9623efeb464919c6bf9f66857a65e2bfcf2ce87a9433d9060200160405180910390a15050565b33610a2e610f42565b600a55610a39610e79565b6009556001600160a01b03811615610a8057610a548161047c565b6001600160a01b0382166000908152600c6020908152604080832093909355600a54600b909152919020555b6000610a8b3361047c565b90508015610af257336000818152600c6020526040812055600654610abc916001600160a01b0390911690836110f1565b60405181815233907fe2403640ba68fed3a2f88b7557551d1993f84b99bb10ff833f0cf8db0c5e04869060200160405180910390a25b5050565b6001600160a01b0382166000908152600d60205260408120548210610b5d5760405162461bcd60e51b815260206004820152601960248201527f5374616b6520696e646578206f7574206f6620626f756e647300000000000000604482015260640161066b565b6001600160a01b0383166000908152600d60205260408120805484908110610b8757610b87611470565b6000918252602080832060408051608081018252600490940290910180548452600181015484840152600281015484830181905260039091015460608501526001600160a01b0389168552600b90925290922054909250670de0b6b3a764000090610bf0610f42565b610bfa9190611411565b8351610c069190611424565b610c10919061143b565b610c1a9190611424565b949350505050565b600d6020528160005260406000208181548110610c3e57600080fd5b60009182526020909120600490910201805460018201546002830154600390930154919450925084565b610c70611000565b610c7a6000611127565b565b33610c85610f42565b600a55610c90610e79565b6009556001600160a01b03811615610cd757610cab8161047c565b6001600160a01b0382166000908152600c6020908152604080832093909355600a54600b909152919020555b60008311610d185760405162461bcd60e51b815260206004820152600e60248201526d043616e6e6f74207374616b6520360941b604482015260640161066b565b6000828152600e6020526040902054610d695760405162461bcd60e51b8152602060048201526013602482015272125b9d985b1a59081b1bd8dac81c195c9a5bd9606a1b604482015260640161066b565b6000828152600e60209081526040808320548352600f825280832054338452600d83529281902081516080810183528781529283018690529082018390529060608101610db6864261145d565b9052815460018181018455600093845260208085208451600490940201928355830151908201556040820151600282015560609091015160039091015560108054869290610e0590849061145d565b90915550503360009081526011602052604081208054869290610e2990849061145d565b90915550610e38905084610eea565b604080518581526020810185905233917f1449c6dd7851abc30abf37f57715f492010519147cc2652fbc38202c18a6ee90910160405180910390a250505050565b6000610e8742600754611179565b905090565b33610e95610f42565b600a55610ea0610e79565b6009556001600160a01b03811615610ee757610ebb8161047c565b6001600160a01b0382166000908152600c6020908152604080832093909355600a54600b909152919020555b50565b80600154610ef8919061145d565b60015533600090815260026020526040902054610f1690829061145d565b336000818152600260205260408120929092559054610ee7916001600160a01b03909116903084611084565b6000610f4d60105490565b600003610f5b5750600a5490565b6000600954610f68610e79565b610f729190611411565b9050600060085482610f849190611424565b90506000610f9160105490565b610fa383670de0b6b3a7640000611424565b610fad919061143b565b905080600a54610fbd919061145d565b935050505090565b610fcd611000565b6001600160a01b038116610ff757604051631e4fbdf760e01b81526000600482015260240161066b565b610ee781611127565b6003546001600160a01b03163314610c7a5760405163118cdaa760e01b815233600482015260240161066b565b8060015461103b9190611411565b60015533600090815260026020526040902054611059908290611411565b336000818152600260205260408120929092559054610ee7916001600160a01b0390911690836110f1565b6040516001600160a01b0384811660248301528381166044830152606482018390526110eb9186918216906323b872dd906084015b604051602081830303815290604052915060e01b6020820180516001600160e01b038381831617835250505050611191565b50505050565b6040516001600160a01b0383811660248301526044820183905261112291859182169063a9059cbb906064016110b9565b505050565b600380546001600160a01b038381166001600160a01b0319831681179093556040519116919082907f8be0079c531659141344cd1fd0a4f28419497f9722a3daafe3b4186f6b6457e090600090a35050565b6000818310611188578161118a565b825b9392505050565b60006111a66001600160a01b038416836111f4565b905080516000141580156111cb5750808060200190518101906111c9919061149c565b155b1561112257604051635274afe760e01b81526001600160a01b038416600482015260240161066b565b606061118a8383600084600080856001600160a01b0316848660405161121a91906114be565b60006040518083038185875af1925050503d8060008114611257576040519150601f19603f3d011682016040523d82523d6000602084013e61125c565b606091505b509150915061126c868383611276565b9695505050505050565b60608261128b57611286826112d2565b61118a565b81511580156112a257506001600160a01b0384163b155b156112cb57604051639996b31560e01b81526001600160a01b038516600482015260240161066b565b508061118a565b8051156112e25780518082602001fd5b604051630a12f52160e11b815260040160405180910390fd5b80356001600160a01b038116811461131257600080fd5b919050565b60006020828403121561132957600080fd5b61118a826112fb565b602080825282518282018190526000919060409081850190868401855b828110156113895781518051855286810151878601528581015186860152606090810151908501526080909301929085019060010161134f565b5091979650505050505050565b6000602082840312156113a857600080fd5b5035919050565b600080604083850312156113c257600080fd5b6113cb836112fb565b946020939093013593505050565b600080604083850312156113ec57600080fd5b50508035926020909101359150565b634e487b7160e01b600052601160045260246000fd5b818103818111156104f3576104f36113fb565b80820281158282048414176104f3576104f36113fb565b60008261145857634e487b7160e01b600052601260045260246000fd5b500490565b808201808211156104f3576104f36113fb565b634e487b7160e01b600052603260045260246000fd5b634e487b7160e01b600052603160045260246000fd5b6000602082840312156114ae57600080fd5b8151801515811461118a57600080fd5b6000825160005b818110156114df57602081860181015185830152016114c5565b50600092019182525091905056fea264697066735822122010a2ffe6ac701b82b53dc7e6b8835af0b75c4a1b6201d36f261aa132dce676f064736f6c63430008170033","linkReferences":{}},"methodIdentifiers":{"DURATION()":"1be05289","balanceOf(address)":"70a08231","earned(address)":"008cc262","earnedOnStake(address,uint256)":"47cbeb17","getAllStakes(address)":"04238994","getReward()":"3d18b912","lastTimeRewardApplicable()":"80faa57d","lastUpdateTime()":"c8f33c91","lockMultipliers(uint256)":"dd6b21be","lockPeriods(uint256)":"4c8f2a78","notifyRewardAmount(uint256)":"3c6b16ab","owner()":"8da5cb5b","perezoso()":"edd0e0cb","perezosoToken()":"1ba81812","periodFinish()":"ebe2b12b","renounceOwnership()":"715018a6","rewardPerToken()":"cd3daf9d","rewardPerTokenStored()":"df136d65","rewardRate()":"7b0a47ee","rewards(address)":"0700037d","rewardsDistribution()":"3fc6df6e","setRewardsDistribution(address)":"19762143","stake(uint256)":"a694fc3a","stake(uint256,uint256)":"7b0472f0","stakes(address,uint256)":"584b62a1","stakesCount(address)":"0e36e355","totalSupply()":"18160ddd","transferOwnership(address)":"f2fde38b","updateMyRewards()":"8d583d36","userRewardPerTokenPaid(address)":"8b876347","withdraw(uint256)":"2e1a7d4d"},"id":36}