{"abi":[{"type":"constructor","inputs":[{"name":"_owner","type":"address","internalType":"address"},{"name":"_babyPerezoso","type":"address","internalType":"address"},{"name":"_przs","type":"address","internalType":"address"}],"stateMutability":"nonpayable"},{"type":"function","name":"DURATION","inputs":[],"outputs":[{"name":"","type":"uint256","internalType":"uint256"}],"stateMutability":"view"},{"type":"function","name":"activateEscrow","inputs":[],"outputs":[],"stateMutability":"nonpayable"},{"type":"function","name":"activateGetRewards","inputs":[],"outputs":[],"stateMutability":"nonpayable"},{"type":"function","name":"activateReferrals","inputs":[],"outputs":[],"stateMutability":"nonpayable"},{"type":"function","name":"babyPerezoso","inputs":[],"outputs":[{"name":"","type":"address","internalType":"contract IERC20"}],"stateMutability":"view"},{"type":"function","name":"balanceOf","inputs":[{"name":"account","type":"address","internalType":"address"}],"outputs":[{"name":"","type":"uint256","internalType":"uint256"}],"stateMutability":"view"},{"type":"function","name":"delegatePosition","inputs":[{"name":"stakeIndex","type":"uint256","internalType":"uint256"},{"name":"delegatee","type":"address","internalType":"address"}],"outputs":[],"stateMutability":"nonpayable"},{"type":"function","name":"deployer","inputs":[],"outputs":[{"name":"","type":"address","internalType":"address"}],"stateMutability":"view"},{"type":"function","name":"earned","inputs":[{"name":"account","type":"address","internalType":"address"}],"outputs":[{"name":"","type":"uint256","internalType":"uint256"}],"stateMutability":"view"},{"type":"function","name":"earnedOnStake","inputs":[{"name":"account","type":"address","internalType":"address"},{"name":"index","type":"uint256","internalType":"uint256"}],"outputs":[{"name":"","type":"uint256","internalType":"uint256"}],"stateMutability":"view"},{"type":"function","name":"escrowActivated","inputs":[],"outputs":[{"name":"","type":"bool","internalType":"bool"}],"stateMutability":"view"},{"type":"function","name":"escrowedRewards","inputs":[{"name":"","type":"address","internalType":"address"}],"outputs":[{"name":"totalEscrowed","type":"uint256","internalType":"uint256"},{"name":"releaseTime1","type":"uint256","internalType":"uint256"},{"name":"releaseTime2","type":"uint256","internalType":"uint256"},{"name":"releaseTime3","type":"uint256","internalType":"uint256"},{"name":"withdrawn1","type":"bool","internalType":"bool"},{"name":"withdrawn2","type":"bool","internalType":"bool"},{"name":"withdrawn3","type":"bool","internalType":"bool"}],"stateMutability":"view"},{"type":"function","name":"getAllStakes","inputs":[{"name":"user","type":"address","internalType":"address"}],"outputs":[{"name":"","type":"tuple[]","internalType":"struct StakingRewardsV4.Stake[]","components":[{"name":"amount","type":"uint256","internalType":"uint256"},{"name":"lockPeriod","type":"uint256","internalType":"uint256"},{"name":"multiplier","type":"uint256","internalType":"uint256"},{"name":"lockEnd","type":"uint256","internalType":"uint256"},{"name":"totalEarned","type":"uint256","internalType":"uint256"},{"name":"owners","type":"address[]","internalType":"address[]"}]}],"stateMutability":"view"},{"type":"function","name":"getReferralCount","inputs":[{"name":"referrer","type":"address","internalType":"address"}],"outputs":[{"name":"","type":"uint256","internalType":"uint256"}],"stateMutability":"view"},{"type":"function","name":"getReferralStaked","inputs":[{"name":"referrer","type":"address","internalType":"address"}],"outputs":[{"name":"","type":"uint256","internalType":"uint256"}],"stateMutability":"view"},{"type":"function","name":"getReferrer","inputs":[{"name":"staker","type":"address","internalType":"address"}],"outputs":[{"name":"","type":"address","internalType":"address"}],"stateMutability":"view"},{"type":"function","name":"getReward","inputs":[],"outputs":[],"stateMutability":"nonpayable"},{"type":"function","name":"getRewardsActivated","inputs":[],"outputs":[{"name":"","type":"bool","internalType":"bool"}],"stateMutability":"view"},{"type":"function","name":"getTotalStakedByReferral","inputs":[{"name":"referrer","type":"address","internalType":"address"}],"outputs":[{"name":"","type":"uint256","internalType":"uint256"}],"stateMutability":"view"},{"type":"function","name":"importedStakes","inputs":[],"outputs":[{"name":"","type":"bool","internalType":"bool"}],"stateMutability":"view"},{"type":"function","name":"isStaker","inputs":[{"name":"","type":"address","internalType":"address"}],"outputs":[{"name":"","type":"bool","internalType":"bool"}],"stateMutability":"view"},{"type":"function","name":"lastTimeRewardApplicable","inputs":[],"outputs":[{"name":"","type":"uint256","internalType":"uint256"}],"stateMutability":"view"},{"type":"function","name":"lastUpdateTime","inputs":[],"outputs":[{"name":"","type":"uint256","internalType":"uint256"}],"stateMutability":"view"},{"type":"function","name":"lastWithdrawalTime","inputs":[{"name":"","type":"address","internalType":"address"}],"outputs":[{"name":"","type":"uint256","internalType":"uint256"}],"stateMutability":"view"},{"type":"function","name":"lockMultipliers","inputs":[{"name":"","type":"uint256","internalType":"uint256"}],"outputs":[{"name":"","type":"uint256","internalType":"uint256"}],"stateMutability":"view"},{"type":"function","name":"lockPeriods","inputs":[{"name":"","type":"uint256","internalType":"uint256"}],"outputs":[{"name":"","type":"uint256","internalType":"uint256"}],"stateMutability":"view"},{"type":"function","name":"notifyRewardAmount","inputs":[{"name":"_amount","type":"uint256","internalType":"uint256"}],"outputs":[],"stateMutability":"nonpayable"},{"type":"function","name":"owner","inputs":[],"outputs":[{"name":"","type":"address","internalType":"address"}],"stateMutability":"view"},{"type":"function","name":"periodFinish","inputs":[],"outputs":[{"name":"","type":"uint256","internalType":"uint256"}],"stateMutability":"view"},{"type":"function","name":"przs","inputs":[],"outputs":[{"name":"","type":"address","internalType":"contract IERC20"}],"stateMutability":"view"},{"type":"function","name":"recoverBabyPerezosoToken","inputs":[],"outputs":[],"stateMutability":"nonpayable"},{"type":"function","name":"recoverERC20","inputs":[{"name":"tokenAddress","type":"address","internalType":"address"},{"name":"tokenAmount","type":"uint256","internalType":"uint256"}],"outputs":[],"stateMutability":"nonpayable"},{"type":"function","name":"referralCount","inputs":[{"name":"","type":"address","internalType":"address"}],"outputs":[{"name":"","type":"uint256","internalType":"uint256"}],"stateMutability":"view"},{"type":"function","name":"referralRewards","inputs":[{"name":"","type":"address","internalType":"address"}],"outputs":[{"name":"","type":"uint256","internalType":"uint256"}],"stateMutability":"view"},{"type":"function","name":"referralStaked","inputs":[{"name":"","type":"address","internalType":"address"}],"outputs":[{"name":"","type":"uint256","internalType":"uint256"}],"stateMutability":"view"},{"type":"function","name":"referralsActivated","inputs":[],"outputs":[{"name":"","type":"bool","internalType":"bool"}],"stateMutability":"view"},{"type":"function","name":"referredBy","inputs":[{"name":"","type":"address","internalType":"address"}],"outputs":[{"name":"","type":"address","internalType":"address"}],"stateMutability":"view"},{"type":"function","name":"renounceOwnership","inputs":[],"outputs":[],"stateMutability":"nonpayable"},{"type":"function","name":"rewardPaid","inputs":[{"name":"","type":"address","internalType":"address"}],"outputs":[{"name":"","type":"uint256","internalType":"uint256"}],"stateMutability":"view"},{"type":"function","name":"rewardPerToken","inputs":[],"outputs":[{"name":"","type":"uint256","internalType":"uint256"}],"stateMutability":"view"},{"type":"function","name":"rewardPerTokenStored","inputs":[],"outputs":[{"name":"","type":"uint256","internalType":"uint256"}],"stateMutability":"view"},{"type":"function","name":"rewardRate","inputs":[],"outputs":[{"name":"","type":"uint256","internalType":"uint256"}],"stateMutability":"view"},{"type":"function","name":"rewards","inputs":[{"name":"","type":"address","internalType":"address"}],"outputs":[{"name":"","type":"uint256","internalType":"uint256"}],"stateMutability":"view"},{"type":"function","name":"rewardsDistribution","inputs":[],"outputs":[{"name":"","type":"address","internalType":"address"}],"stateMutability":"view"},{"type":"function","name":"setDuration","inputs":[{"name":"_duration","type":"uint256","internalType":"uint256"}],"outputs":[],"stateMutability":"nonpayable"},{"type":"function","name":"setRewardsDistribution","inputs":[{"name":"_rewardsDistribution","type":"address","internalType":"address"}],"outputs":[],"stateMutability":"nonpayable"},{"type":"function","name":"stake","inputs":[{"name":"amount","type":"uint256","internalType":"uint256"},{"name":"lockPeriod","type":"uint256","internalType":"uint256"}],"outputs":[],"stateMutability":"nonpayable"},{"type":"function","name":"stake","inputs":[{"name":"amount","type":"uint256","internalType":"uint256"}],"outputs":[],"stateMutability":"nonpayable"},{"type":"function","name":"stakeByRef","inputs":[{"name":"amount","type":"uint256","internalType":"uint256"},{"name":"lockPeriod","type":"uint256","internalType":"uint256"},{"name":"referrer","type":"address","internalType":"address"}],"outputs":[],"stateMutability":"nonpayable"},{"type":"function","name":"stakers","inputs":[{"name":"","type":"uint256","internalType":"uint256"}],"outputs":[{"name":"","type":"address","internalType":"address"}],"stateMutability":"view"},{"type":"function","name":"stakes","inputs":[{"name":"","type":"address","internalType":"address"},{"name":"","type":"uint256","internalType":"uint256"}],"outputs":[{"name":"amount","type":"uint256","internalType":"uint256"},{"name":"lockPeriod","type":"uint256","internalType":"uint256"},{"name":"multiplier","type":"uint256","internalType":"uint256"},{"name":"lockEnd","type":"uint256","internalType":"uint256"},{"name":"totalEarned","type":"uint256","internalType":"uint256"}],"stateMutability":"view"},{"type":"function","name":"stakesCount","inputs":[{"name":"user","type":"address","internalType":"address"}],"outputs":[{"name":"","type":"uint256","internalType":"uint256"}],"stateMutability":"view"},{"type":"function","name":"stakingToken","inputs":[],"outputs":[{"name":"","type":"address","internalType":"contract IERC20"}],"stateMutability":"view"},{"type":"function","name":"totalStakers","inputs":[],"outputs":[{"name":"","type":"uint256","internalType":"uint256"}],"stateMutability":"view"},{"type":"function","name":"totalSupply","inputs":[],"outputs":[{"name":"","type":"uint256","internalType":"uint256"}],"stateMutability":"view"},{"type":"function","name":"transferOwnership","inputs":[{"name":"newOwner","type":"address","internalType":"address"}],"outputs":[],"stateMutability":"nonpayable"},{"type":"function","name":"userRewardPerTokenPaid","inputs":[{"name":"","type":"address","internalType":"address"}],"outputs":[{"name":"","type":"uint256","internalType":"uint256"}],"stateMutability":"view"},{"type":"function","name":"weightedTotalSupply","inputs":[],"outputs":[{"name":"","type":"uint256","internalType":"uint256"}],"stateMutability":"view"},{"type":"function","name":"withdraw","inputs":[{"name":"stakeIndex","type":"uint256","internalType":"uint256"}],"outputs":[],"stateMutability":"nonpayable"},{"type":"event","name":"OwnershipTransferred","inputs":[{"name":"previousOwner","type":"address","indexed":true,"internalType":"address"},{"name":"newOwner","type":"address","indexed":true,"internalType":"address"}],"anonymous":false},{"type":"event","name":"RewardAdded","inputs":[{"name":"reward","type":"uint256","indexed":false,"internalType":"uint256"}],"anonymous":false},{"type":"event","name":"RewardPaid","inputs":[{"name":"user","type":"address","indexed":true,"internalType":"address"},{"name":"reward","type":"uint256","indexed":false,"internalType":"uint256"}],"anonymous":false},{"type":"event","name":"Staked","inputs":[{"name":"user","type":"address","indexed":true,"internalType":"address"},{"name":"amount","type":"uint256","indexed":false,"internalType":"uint256"},{"name":"lockPeriod","type":"uint256","indexed":false,"internalType":"uint256"}],"anonymous":false},{"type":"event","name":"StakedByReferral","inputs":[{"name":"user","type":"address","indexed":true,"internalType":"address"},{"name":"referrer","type":"address","indexed":true,"internalType":"address"},{"name":"amount","type":"uint256","indexed":false,"internalType":"uint256"},{"name":"lockPeriod","type":"uint256","indexed":false,"internalType":"uint256"}],"anonymous":false},{"type":"event","name":"TokensRecovered","inputs":[{"name":"token","type":"address","indexed":false,"internalType":"address"},{"name":"amount","type":"uint256","indexed":false,"internalType":"uint256"}],"anonymous":false},{"type":"event","name":"Withdrawn","inputs":[{"name":"user","type":"address","indexed":true,"internalType":"address"},{"name":"amount","type":"uint256","indexed":false,"internalType":"uint256"}],"anonymous":false},{"type":"error","name":"AddressEmptyCode","inputs":[{"name":"target","type":"address","internalType":"address"}]},{"type":"error","name":"AddressInsufficientBalance","inputs":[{"name":"account","type":"address","internalType":"address"}]},{"type":"error","name":"FailedInnerCall","inputs":[]},{"type":"error","name":"OwnableInvalidOwner","inputs":[{"name":"owner","type":"address","internalType":"address"}]},{"type":"error","name":"OwnableUnauthorizedAccount","inputs":[{"name":"account","type":"address","internalType":"address"}]},{"type":"error","name":"ReentrancyGuardReentrantCall","inputs":[]},{"type":"error","name":"SafeERC20FailedOperation","inputs":[{"name":"token","type":"address","internalType":"address"}]}],"bytecode":{"object":"0x6080346200018057601f62002ef038819003918201601f1916830191906001600160401b038311848410176200018557816060928592604095865283398101031262000180578062000051836200019b565b6200005f602085016200019b565b936001600160a01b039384916200007791016200019b565b1660018060a01b031990846000938284865416178555169485156200016857600695966003549780858a161760035582875199167f8be0079c531659141344cd1fd0a4f28419497f9722a3daafe3b4186f6b6457e08780a3600160055562093a806008558460095584600a5516828654161785558160075416176007553390601e541617601e5562278d00815260116020526001828220556276a700815260028282205562ed4e0081526003828220556301da9c008152828282205560018152601260205260018282205560028152600282822055600381526003828220558281522055612d3f9081620001b18239f35b8451631e4fbdf760e01b815260048101859052602490fd5b600080fd5b634e487b7160e01b600052604160045260246000fd5b51906001600160a01b0382168203620001805756fe6080604052600436101561001257600080fd5b6000803560e01c80628cc2621461229a578063042389941461209b5780630700037d1461206257806307d6564314611f625780630e36e35514611f295780630eeb383914611f0357806318160ddd14611ee55780631976214314611ea05780631be0528914611e8257806324acbd6914610675578063279f329114611e5c5780632e1a7d4d14611aeb5780632fd5a9c814611a6c57806331efcd6e146119ed578063354f5e4e146119c9578063392956eb146119445780633c6b16ab146117e35780633d18b912146112655780633fc6df6e1461123c57806347cbeb171461121457806348f25e051461086a5780634a9fefc7146107d75780634b757c93146111ee5780634c8f2a78146111c45780634d7d57531461119b5780634de5120e1461116257806353aaa63b14611129578063584b62a1146110ab5780636f1e85331461106c578063701bdb1514610cd957806370a0823114610ca0578063715018a614610c4357806372f702f314610c1c5780637b0472f0146109f65780637b0a47ee146109d857806380faa57d146109bd578063869890381461099f5780638980f11f146109055780638b876347146108cc5780638da5cb5b146108a3578063a26110671461086a578063a694fc3a14610813578063a90f8e9a146107d7578063b1a7143d146107bc578063b9c5a4b414610796578063c8f33c9114610778578063cd3daf9d14610755578063d5f394881461072c578063da374db2146106ae578063db74559b14610675578063dd6b21be1461064b578063dda6cb8314610521578063df136d6514610503578063dfbece7f146104da578063e6b40c42146104a1578063ebe2b12b14610483578063f2fde38b146103f4578063f6be71d1146102eb5763fd5e6dd1146102a557600080fd5b346102e85760203660031901126102e85760043590600d548210156102e85760206102cf8361230b565b905460405160039290921b1c6001600160a01b03168152f35b80fd5b50346102e85760203660031901126102e8576003546004359061032390336001600160a01b03918216149081156103e6575b506128be565b60095461037b5780156103365760085580f35b60405162461bcd60e51b815260206004820152601f60248201527f4475726174696f6e206d7573742062652067726561746572207468616e2030006044820152606490fd5b60405162461bcd60e51b815260206004820152603d60248201527f43616e6e6f74206368616e6765206475726174696f6e2061667465722072657760448201527f6172647320646973747269627574696f6e2068617320737461727465640000006064820152608490fd5b9050601e541633143861031d565b50346102e85760203660031901126102e85761040e6122be565b610416612a81565b6001600160a01b0390811690811561046a57600354826bffffffffffffffffffffffff60a01b821617600355167f8be0079c531659141344cd1fd0a4f28419497f9722a3daafe3b4186f6b6457e08380a380f35b604051631e4fbdf760e01b815260048101849052602490fd5b50346102e857806003193601126102e8576020600954604051908152f35b50346102e85760203660031901126102e8576020906040906001600160a01b036104c96122be565b168152601883522054604051908152f35b50346102e857806003193601126102e8576006546040516001600160a01b039091168152602090f35b50346102e857806003193601126102e8576020600c54604051908152f35b50346102e857806003193601126102e8576003546001600160a01b03908116338114801561063e575b610553906128be565b816006541691604051916370a0823160e01b8352306004840152602083602481875afa9283156106335785936105db575b50826105b1917f46d2e6e71fc567877b817ff3d940571f989d4ee4d40f2b70806d36e738feef6f95612aad565b60065460408051929091166001600160a01b03168252602082019290925290819081015b0390a180f35b9092506020813d60201161062b575b816105f760209383612415565b810103126106275751917f46d2e6e71fc567877b817ff3d940571f989d4ee4d40f2b70806d36e738feef6f610584565b8480fd5b3d91506105ea565b6040513d87823e3d90fd5b50601e548216331461054a565b50346102e85760203660031901126102e85760406020916004358152601283522054604051908152f35b50346102e85760203660031901126102e8576020906040906001600160a01b0361069d6122be565b168152601983522054604051908152f35b50346102e857806003193601126102e8576106c7612a81565b601e5460ff8160b81c166106e85760ff60b81b1916600160b81b17601e5580f35b606460405162461bcd60e51b815260206004820152602060248201527f476574207265776172647320697320616c7265616479206163746976617465646044820152fd5b50346102e857806003193601126102e857601e546040516001600160a01b039091168152602090f35b50346102e857806003193601126102e85760206107706129be565b604051908152f35b50346102e857806003193601126102e8576020600b54604051908152f35b50346102e857806003193601126102e857602060ff601e5460a01c166040519015158152f35b50346102e857806003193601126102e8576020610770612916565b50346102e85760203660031901126102e8576020906001600160a01b0390604090826108016122be565b168152601b8452205416604051908152f35b50346102e85760203660031901126102e8576108676004356108378160015461265d565b60015533835260026020526040832061085182825461265d565b90558254309033906001600160a01b0316612b91565b80f35b50346102e85760203660031901126102e8576020906040906001600160a01b036108926122be565b168152601a83522054604051908152f35b50346102e857806003193601126102e8576003546040516001600160a01b039091168152602090f35b50346102e85760203660031901126102e8576020906040906001600160a01b036108f46122be565b168152600e83522054604051908152f35b50346102e85760403660031901126102e8577f46d2e6e71fc567877b817ff3d940571f989d4ee4d40f2b70806d36e738feef6f6109406122be565b6024359061096f8260018060a01b038060035416908133148015610992575b610968906128be565b8416612aad565b604080516001600160a01b039092168252602082019290925290819081016105d5565b50601e548116331461095f565b50346102e857806003193601126102e8576020601454604051908152f35b50346102e857806003193601126102e85760206107706128ac565b50346102e857806003193601126102e8576020600a54604051908152f35b50346102e85760403660031901126102e857600435602435610a166129be565b600c55610a216128ac565b600b5533610bae575b610a35821515612754565b808352602060118152610a4d60408520541515612791565b610ace604051610a5c816123f9565b6001815282368183013733610a70826127d3565b52838652601183526040862054865260128352604086205490338752601084526040872090610a9f864261265d565b60405193610aac856123c7565b88855287878601526040850152606084015287608084015260a08301526127e0565b601354610ae7610ade858361265d565b91821015612a14565b601355338452601581526040842054610b03610ade858361265d565b338552601582526040852055601681528360408120556017815260ff60408520541615610b78575b600754610b46908490309033906001600160a01b0316612b91565b6040519283528201527f1449c6dd7851abc30abf37f57715f492010519147cc2652fbc38202c18a6ee9060403392a280f35b610b81336124c5565b3384526017815260408420805460ff19166001179055601454610ba6610ade8261264f565b601455610b2b565b825b33845260109060208281526040862054821015610bf157600192610bd4833361266a565b91338852526004610be883604089206122d9565b50015501610bb0565b505050610bfd3361235a565b338452600f6020526040842055600c54600e6020526040842055610a2a565b50346102e857806003193601126102e857546040516001600160a01b039091168152602090f35b50346102e857806003193601126102e857610c5c612a81565b600380546001600160a01b0319811690915581906001600160a01b03167f8be0079c531659141344cd1fd0a4f28419497f9722a3daafe3b4186f6b6457e08280a380f35b50346102e85760203660031901126102e8576020906040906001600160a01b03610cc86122be565b168152601583522054604051908152f35b50346102e85760603660031901126102e8576044356001600160a01b0381811691600435916024359184900361062757610d116129be565b600c55610d1c6128ac565b600b5533610ff8575b60ff601e5460b01c1615610fb357610d3e831515612754565b81855260209060118252610d5760408720541515612791565b338514610f6e578415610f295783610e8891338852601b84526040882087815483811615610ef0575b50895250601a84526040882054610d9a610ade848361265d565b878952601a85526040892055610e27604051610db5816123f9565b6001815285368183013733610dc9826127d3565b52868a526011865260408a20548a526012865260408a205490338b526010875260408b2090610df8894261265d565b60405193610e05856123c7565b8785528a8a860152604085015260608401528b608084015260a08301526127e0565b601354610e37610ade848361265d565b601355338852601584526040882054610e53610ade848361265d565b338952601585526040892055601684528760408120556017845260ff60408920541615610eba575b6007541630903390612b91565b6040519283528201527fddd54ff6549f58960583a8d79339bbd902ef2338ac14358c73d2f86e2d124c7b60403392a380f35b610ec3336124c5565b3388526017845260408820805460ff19166001179055601454610ee8610ade8261264f565b601455610e7b565b6001600160a01b031916179055868852601984526040882054610f15610ade8261264f565b878952601985526040892055388781610d80565b60405162461bcd60e51b815260048101839052601860248201527f496e76616c6964207265666572726572206164647265737300000000000000006044820152606490fd5b60405162461bcd60e51b815260048101839052601d60248201527f52656665727265722063616e6e6f7420626520746865207374616b65720000006044820152606490fd5b60405162461bcd60e51b815260206004820152601b60248201527f526566657272616c73206e6f74206163746976617465642079657400000000006044820152606490fd5b9192845b3386526010602090808252604088205483101561103f579082916110226001943361266a565b91338a525260046110368360408b206122d9565b50015501610ffc565b505050929161104d3361235a565b338652600f6020526040862055600c54600e6020526040862055610d25565b50346102e85760203660031901126102e85760209060ff906040906001600160a01b036110976122be565b168152601784522054166040519015158152f35b50346102e85760403660031901126102e8576110c56122be565b6001600160a01b03168152601060205260408120805460243592908310156102e85760a06110f384846122d9565b50805490600181015490600281015460046003830154920154926040519485526020850152604084015260608301526080820152f35b50346102e85760203660031901126102e8576020906040906001600160a01b036111516122be565b168152601d83522054604051908152f35b50346102e85760203660031901126102e8576020906040906001600160a01b0361118a6122be565b168152601683522054604051908152f35b50346102e857806003193601126102e8576007546040516001600160a01b039091168152602090f35b50346102e85760203660031901126102e85760406020916004358152601183522054604051908152f35b50346102e857806003193601126102e857602060ff601e5460a81c166040519015158152f35b50346102e85760403660031901126102e85760206107706112336122be565b6024359061266a565b50346102e857806003193601126102e8576004546040516001600160a01b039091168152602090f35b50346102e857806003193601126102e85761127e6129be565b600c556112896128ac565b600b5533611775575b601e5460ff90818160a81c16156117305760b81c8116156116eb576112b63361235a565b9081156116b057338352602090601c82526040842084936001820190815415611653575b505442101580611645575b611629575b600281015442101580611618575b6115ef575b6003810154421015806115de575b611599575b50821561155457907fe2403640ba68fed3a2f88b7557551d1993f84b99bb10ff833f0cf8db0c5e048691338552600f825261135b84604087205461135681831115612a14565b612502565b338652600f8352604086205560188252604085205461137d610ade868361265d565b3386526018835260408620556016825242604086205560018060a01b03906113aa85338460065416612aad565b601e5460b01c168061153e575b6113c9575b506040519283523392a280f35b338552601b8252806040862054166113e0816125d8565b6b204fce5e3e2502611000000081101561146f57508552601d825268056bc75e2d6310000060408620555b338552601b8252806040862054168552601d82526040852054908282611433575b50506113bc565b8161145284879460065416338b52601b85528360408c20541690612aad565b338852601b825260408820541692604051908152a238808261142c565b6ba18f07d736b90be55000000081101561149e57508552601d8252681b1ae4d6e2ef500000604086205561140b565b6c01431e0fae6d7217caa00000008110156114ce57508552601d8252683635c9adc5dea00000604086205561140b565b6c03c95a2f0b4856475fe00000008110156114fe57508552601d825268a2a15d09519be00000604086205561140b565b6c0792b45e1690ac8ebfc0000000111561152d578552601d825269014542ba12a337c00000604086205561140b565b8552601d825284604081205561140b565b50338552601b82528060408620541615156113b7565b60405162461bcd60e51b815260048101839052601960248201527f4e6f207265776172647320746f2072656c6561736520796574000000000000006044820152606490fd5b926004906115c7610ade6115c187546115b460038204612b10565b9061135681831115612a14565b8361265d565b9301805462ff000019166201000017905538611310565b5081600482015460101c161561130b565b92611601610ade60038654048361265d565b60048401805461ff001916610100179055926112fd565b5081600482015460081c16156112f8565b805460048201805460ff191660011790556003900493506112ea565b5081600482015416156112e5565b825562278d00420180421161169c578155624f1a00420180421161169c5760028301556276a700420180421161169c57600383015560048201805462ffffff19169055386112da565b634e487b7160e01b87526011600452602487fd5b60405162461bcd60e51b81526020600482015260136024820152724e6f207265776172647320746f20636c61696d60681b6044820152606490fd5b60405162461bcd60e51b815260206004820152601d60248201527f4765742072657761726473206e6f7420616374697661746564207965740000006044820152606490fd5b60405162461bcd60e51b815260206004820152601860248201527f457363726f77206e6f74206163746976617465642079657400000000000000006044820152606490fd5b805b338252601090602082815260408420548210156117b85760019261179b833361266a565b913386525260046117af83604087206122d9565b50015501611777565b5050506117c43361235a565b338252600f6020526040822055600c54600e6020526040822055611292565b50346102e85760203660031901126102e8576004356118006129be565b600c55600954428111611886575060207fde88a922e0d3b88b24e9623efeb464919c6bf9f66857a65e2bfcf2ce87a9433d9161183e60085482612af0565b600a555b42600b556118526008544261265d565b61185e42821015612a14565b60095560065461187c908290309033906001600160a01b0316612b91565b604051908152a180f35b8061189661189d92421115612a14565b4290612502565b6118cb6118b66118b0600a548094612b6a565b8461265d565b6118c284821015612a14565b60085490612af0565b9081106118ff577fde88a922e0d3b88b24e9623efeb464919c6bf9f66857a65e2bfcf2ce87a9433d91602091600a55611842565b60405162461bcd60e51b815260206004820152601760248201527f4e657720726577617264207261746520746f6f206c6f770000000000000000006044820152606490fd5b50346102e85760203660031901126102e85760e0906040906001600160a01b0361196c6122be565b168152601c6020522060ff8154916001810154906002810154600460038301549201549260405195865260208601526040850152606084015281811615156080840152818160081c16151560a084015260101c16151560c0820152f35b50346102e85760203660031901126102e85760206107706119e86122be565b6125d8565b50346102e857806003193601126102e857611a06612a81565b601e5460ff8160a81c16611a275760ff60a81b1916600160a81b17601e5580f35b60405162461bcd60e51b815260206004820152601b60248201527f457363726f7720697320616c72656164792061637469766174656400000000006044820152606490fd5b50346102e857806003193601126102e857611a85612a81565b601e5460ff8160b01c16611aa65760ff60b01b1916600160b01b17601e5580f35b60405162461bcd60e51b815260206004820152601f60248201527f526566657272616c732061726520616c726561647920616374697661746564006044820152606490fd5b50346102e857602080600319360112611e585760043590611b0a6129be565b600c55611b156128ac565b600b5533611dee575b33835260108152611b3460408420548310612437565b33835260108152611b4882604085206122d9565b5080548015611db25760038201544210611d7b57611b8190611b72611b6d3385612a31565b612479565b60135461135681831115612a14565b60135533845260158252611ba2604085205482549061135681831115612a14565b338552601583526040852055611bc660018060a01b03600754168254903390612aad565b546040519081527f7084f5476618d8e60b11ef0d7d3f06914655adb8793e28ff7f018d4c76d505d5823392a2338352601081526040832080546000199391848201918211611d6757611c2d91611c1b916122d9565b509133865260108452604086206122d9565b611d5357818103611d11575b5050338352601081526040832080548015611cfd57830191611c5b83836122d9565b919091611ce9578582556005600192876001820155876002820155876003820155876004820155019081549187815582611cc9575b505050505560145490611ca68260011115612a14565b8101908111611cb55760145580f35b634e487b7160e01b82526011600452602482fd5b87528620908101905b818110611cdf5780611c90565b8681558201611cd2565b634e487b7160e01b86526004869052602486fd5b634e487b7160e01b85526031600452602485fd5b60058083611d4c945484556001810154600185015560028101546002850155600381015460038501556004810154600485015501910161256a565b3880611c39565b634e487b7160e01b85526004859052602485fd5b634e487b7160e01b86526011600452602486fd5b60405162461bcd60e51b815260048101849052600f60248201526e14dd185ad9481a5cc81b1bd8dad959608a1b6044820152606490fd5b60405162461bcd60e51b81526004810184905260146024820152734e6f207374616b6520746f20776974686472617760601b6044820152606490fd5b825b3384526010908183526040852054811015611e3057600191611e12823361266a565b9033875284526004611e2783604089206122d9565b50015501611df0565b5050611e3b3361235a565b338452600f82526040842055600c54600e82526040842055611b1e565b5080fd5b50346102e857806003193601126102e857602060ff601e5460b01c166040519015158152f35b50346102e857806003193601126102e8576020600854604051908152f35b50346102e85760203660031901126102e857611eba6122be565b611ec2612a81565b60018060a01b03166bffffffffffffffffffffffff60a01b600454161760045580f35b50346102e857806003193601126102e8576020601354604051908152f35b50346102e857806003193601126102e857602060ff601e5460b81c166040519015158152f35b50346102e85760203660031901126102e8576020906040906001600160a01b03611f516122be565b168152601083522054604051908152f35b50346102e85760403660031901126102e8576001600160a01b03602435818116906004359082900361205e57811561201957611fc26005913386526010602052611fb160408720548210612437565b3386526010602052604086206122d9565b50611fd0611b6d3383612a31565b01805490600160401b8210156120055790611ff091600182018155612342565b909283549160031b92831b921b191617905580f35b634e487b7160e01b85526041600452602485fd5b60405162461bcd60e51b815260206004820152601960248201527f496e76616c69642064656c6567617465652061646472657373000000000000006044820152606490fd5b8380fd5b50346102e85760203660031901126102e8576020906040906001600160a01b0361208a6122be565b168152600f83522054604051908152f35b50346102e85760203660031901126102e8576001600160a01b036120bd6122be565b168152601060205260408120805467ffffffffffffffff811161228657604051906120ee60208260051b0183612415565b80825260208201809385526020852085915b8383106121dd5786858760405192839260208401906020855251809152604084019160408260051b8601019392815b83831061213c5786860387f35b919395509193603f19878203018352855190602060e060c0928381019385518252838601518483015260408601516040830152606080870151908301526080808701519083015260a0809601519582015284518094520192019083905b8082106121bb575050506020806001929701930193019092869594929361212f565b82516001600160a01b0316845260209384019390920191600190910190612199565b6040516121e9816123c7565b8254815260018301546020820152600283015460408201526003830154606082015260048301546080820152600583016040519081602082549182815201918b5260208b20908b905b8082106122645750505092600692826122516020946001970382612415565b60a0820152815201920192019190612100565b82546001600160a01b0316845260209093019260019283019290910190612232565b634e487b7160e01b83526041600452602483fd5b50346102e85760203660031901126102e85760206107706122b96122be565b61235a565b600435906001600160a01b03821682036122d457565b600080fd5b80548210156122f5576000526006602060002091020190600090565b634e487b7160e01b600052603260045260246000fd5b600d548110156122f557600d6000527fd7b6990105719101dabeb77144f2a3385c8033acd3af97e9423a695e81ad1eb50190600090565b80548210156122f55760005260206000200190600090565b906000805b6001600160a01b03841660009081526010602052604090205482101561239a57600190612392610ade6115c1858861266a565b91019061235f565b90506123c4919260018060a01b031660005260186020526040600020549061135681831115612a14565b90565b60c0810190811067ffffffffffffffff8211176123e357604052565b634e487b7160e01b600052604160045260246000fd5b6040810190811067ffffffffffffffff8211176123e357604052565b90601f8019910116810190811067ffffffffffffffff8211176123e357604052565b1561243e57565b60405162461bcd60e51b8152602060048201526013602482015272092dcecc2d8d2c840e6e8c2d6ca40d2dcc8caf606b1b6044820152606490fd5b1561248057565b60405162461bcd60e51b815260206004820152601d60248201527f43616c6c6572206973206e6f7420746865207374616b65206f776e65720000006044820152606490fd5b600d54600160401b8110156123e3578060016124e49201600d5561230b565b60018060a09493941b038084549260031b9316831b921b1916179055565b9190820391821161250f57565b634e487b7160e01b600052601160045260246000fd5b600160401b82116123e35780549180825582811061254257505050565b600091600052602060002092830192015b82811061255f57505050565b818155600101612553565b8181146125d45781549167ffffffffffffffff83116123e35761258d8383612525565b60005260206000209060005260206000208154916000925b8484106125b3575050505050565b600191820180546001600160a01b03909216848601559390910192906125a5565b5050565b600d54600091825b8281106125ed5750505090565b6125f68161230b565b9060018060a01b03918291549060031b1c166000526020601b8152604091808360002054169085161461262e575b50506001016125e0565b610ade600193969260156126479352600020548361265d565b939038612624565b906001820180921161250f57565b9190820180921161250f57565b6001600160a01b031660008181526010602052604081205490929081101561270f576126a1908284526010602052604084206122d9565b509160038301544211156127095760046126ff670de0b6b3a76400006126f36126ec6123c4966040610ade976126d56129be565b928152600e60205220549061135681831115612a14565b8754612b6a565b04600286015490612b6a565b930154928361265d565b91505090565b60405162461bcd60e51b815260206004820152601960248201527f5374616b6520696e646578206f7574206f6620626f756e6473000000000000006044820152606490fd5b1561275b57565b60405162461bcd60e51b815260206004820152600e60248201526d043616e6e6f74207374616b6520360941b6044820152606490fd5b1561279857565b60405162461bcd60e51b8152602060048201526013602482015272125b9d985b1a59081b1bd8dac81c195c9a5bd9606a1b6044820152606490fd5b8051156122f55760200190565b908154600160401b8110156123e357612801906001936001820181556122d9565b919091612896578051825560a0600560209360208401516001820155604084015160028201556060840151600382015560808401516004820155019101519182519267ffffffffffffffff84116123e35760209061285f8585612525565b019160005260206000209060005b84811061287c57505050505050565b83516001600160a01b03168382015592810192850161286d565b634e487b7160e01b600052600060045260246000fd5b6009548042106000146123c457504290565b156128c557565b60405162461bcd60e51b815260206004820152602360248201527f43616c6c6572206973206e6f7420746865206f776e6572206f72206465706c6f6044820152623cb2b960e91b6064820152608490fd5b600080600d54905b81811061292a57505090565b916129378394929461230b565b905460039190911b1c6001600160a01b0316906000905b8260005260106020908082526040908160002080548610156129aa57600194936002612999886129a296610ade96612989836115c1986122d9565b5054958d600052526000206122d9565b50015490612b6a565b91019061294e565b50505050939050600191509391930161291e565b6129c6612916565b8015612a0d576123c4610ade6115c1600c5493612a08612a036129fa6129ea6128ac565b600b549061135681831115612a14565b600a5490612b6a565b612b40565b612af0565b50600c5490565b15612a1b57565b634e487b7160e01b600052600160045260246000fd5b9060005b600583018054821015612a785781612a4c91612342565b905460039190911b1c6001600160a01b0390811690831614612a7057600101612a35565b505050600190565b50505050600090565b6003546001600160a01b03163303612a9557565b60405163118cdaa760e01b8152336004820152602490fd5b60405163a9059cbb60e01b60208201526001600160a01b03929092166024830152604480830193909352918152612aee91612ae9606483612415565b612be6565b565b8115612afa570490565b634e487b7160e01b600052601260045260246000fd5b8015612b3a578060011b9080820460020361250f576002612b346123c49284612af0565b14612a14565b50600090565b8015612b3a57670de0b6b3a76400009081810291818304810361250f57612b346123c49284612af0565b8015612b8a5781810291818304810361250f57612b346123c49284612af0565b5050600090565b6040516323b872dd60e01b60208201526001600160a01b03928316602482015292909116604483015260648083019390935291815260a081019181831067ffffffffffffffff8411176123e357612aee926040525b60018060a01b031690600080826020829451910182865af13d15612c9a573d9067ffffffffffffffff82116122865790612c429160405191612c326020601f19601f8401160184612415565b82523d84602084013e5b84612ca6565b908151918215159283612c72575b505050612c5a5750565b60249060405190635274afe760e01b82526004820152fd5b819293509060209181010312611e585760200151908115918215036102e85750388080612c50565b612c4290606090612c3c565b90612ccd5750805115612cbb57805190602001fd5b604051630a12f52160e11b8152600490fd5b81511580612d00575b612cde575090565b604051639996b31560e01b81526001600160a01b039091166004820152602490fd5b50803b15612cd656fea2646970667358221220d50199277aa232b7d6f25b69f4476b40cb363d01a1699df9f164662b3625afa664736f6c63430008170033","linkReferences":{}},"methodIdentifiers":{"DURATION()":"1be05289","activateEscrow()":"31efcd6e","activateGetRewards()":"da374db2","activateReferrals()":"2fd5a9c8","babyPerezoso()":"dfbece7f","balanceOf(address)":"70a08231","delegatePosition(uint256,address)":"07d65643","deployer()":"d5f39488","earned(address)":"008cc262","earnedOnStake(address,uint256)":"47cbeb17","escrowActivated()":"4b757c93","escrowedRewards(address)":"392956eb","getAllStakes(address)":"04238994","getReferralCount(address)":"24acbd69","getReferralStaked(address)":"a2611067","getReferrer(address)":"4a9fefc7","getReward()":"3d18b912","getRewardsActivated()":"0eeb3839","getTotalStakedByReferral(address)":"354f5e4e","importedStakes()":"b9c5a4b4","isStaker(address)":"6f1e8533","lastTimeRewardApplicable()":"80faa57d","lastUpdateTime()":"c8f33c91","lastWithdrawalTime(address)":"4de5120e","lockMultipliers(uint256)":"dd6b21be","lockPeriods(uint256)":"4c8f2a78","notifyRewardAmount(uint256)":"3c6b16ab","owner()":"8da5cb5b","periodFinish()":"ebe2b12b","przs()":"4d7d5753","recoverBabyPerezosoToken()":"dda6cb83","recoverERC20(address,uint256)":"8980f11f","referralCount(address)":"db74559b","referralRewards(address)":"53aaa63b","referralStaked(address)":"48f25e05","referralsActivated()":"279f3291","referredBy(address)":"a90f8e9a","renounceOwnership()":"715018a6","rewardPaid(address)":"e6b40c42","rewardPerToken()":"cd3daf9d","rewardPerTokenStored()":"df136d65","rewardRate()":"7b0a47ee","rewards(address)":"0700037d","rewardsDistribution()":"3fc6df6e","setDuration(uint256)":"f6be71d1","setRewardsDistribution(address)":"19762143","stake(uint256)":"a694fc3a","stake(uint256,uint256)":"7b0472f0","stakeByRef(uint256,uint256,address)":"701bdb15","stakers(uint256)":"fd5e6dd1","stakes(address,uint256)":"584b62a1","stakesCount(address)":"0e36e355","stakingToken()":"72f702f3","totalStakers()":"86989038","totalSupply()":"18160ddd","transferOwnership(address)":"f2fde38b","userRewardPerTokenPaid(address)":"8b876347","weightedTotalSupply()":"b1a7143d","withdraw(uint256)":"2e1a7d4d"},"id":33}